{
  "_format": "hh-sol-artifact-1",
  "contractName": "MetroRecharge",
  "sourceName": "contracts/MetroRecharge.sol",
  "abi": [
    {
      "inputs": [],
      "stateMutability": "nonpayable",
      "type": "constructor"
    },
    {
      "anonymous": false,
      "inputs": [
        {
          "indexed": false,
          "internalType": "address",
          "name": "previousAdmin",
          "type": "address"
        },
        {
          "indexed": false,
          "internalType": "address",
          "name": "newAdmin",
          "type": "address"
        }
      ],
      "name": "AdminChanged",
      "type": "event"
    },
    {
      "anonymous": false,
      "inputs": [
        {
          "indexed": true,
          "internalType": "address",
          "name": "beacon",
          "type": "address"
        }
      ],
      "name": "BeaconUpgraded",
      "type": "event"
    },
    {
      "anonymous": false,
      "inputs": [
        {
          "indexed": false,
          "internalType": "address",
          "name": "winnerAccount",
          "type": "address"
        },
        {
          "indexed": false,
          "internalType": "uint256",
          "name": "nftId",
          "type": "uint256"
        }
      ],
      "name": "GiftNFT",
      "type": "event"
    },
    {
      "anonymous": false,
      "inputs": [
        {
          "indexed": false,
          "internalType": "uint8",
          "name": "version",
          "type": "uint8"
        }
      ],
      "name": "Initialized",
      "type": "event"
    },
    {
      "anonymous": false,
      "inputs": [
        {
          "indexed": false,
          "internalType": "address",
          "name": "account",
          "type": "address"
        }
      ],
      "name": "Paused",
      "type": "event"
    },
    {
      "anonymous": false,
      "inputs": [
        {
          "indexed": true,
          "internalType": "bytes32",
          "name": "role",
          "type": "bytes32"
        },
        {
          "indexed": true,
          "internalType": "bytes32",
          "name": "previousAdminRole",
          "type": "bytes32"
        },
        {
          "indexed": true,
          "internalType": "bytes32",
          "name": "newAdminRole",
          "type": "bytes32"
        }
      ],
      "name": "RoleAdminChanged",
      "type": "event"
    },
    {
      "anonymous": false,
      "inputs": [
        {
          "indexed": true,
          "internalType": "bytes32",
          "name": "role",
          "type": "bytes32"
        },
        {
          "indexed": true,
          "internalType": "address",
          "name": "account",
          "type": "address"
        },
        {
          "indexed": true,
          "internalType": "address",
          "name": "sender",
          "type": "address"
        }
      ],
      "name": "RoleGranted",
      "type": "event"
    },
    {
      "anonymous": false,
      "inputs": [
        {
          "indexed": true,
          "internalType": "bytes32",
          "name": "role",
          "type": "bytes32"
        },
        {
          "indexed": true,
          "internalType": "address",
          "name": "account",
          "type": "address"
        },
        {
          "indexed": true,
          "internalType": "address",
          "name": "sender",
          "type": "address"
        }
      ],
      "name": "RoleRevoked",
      "type": "event"
    },
    {
      "anonymous": false,
      "inputs": [
        {
          "indexed": false,
          "internalType": "address",
          "name": "account",
          "type": "address"
        }
      ],
      "name": "Unpaused",
      "type": "event"
    },
    {
      "anonymous": false,
      "inputs": [
        {
          "indexed": true,
          "internalType": "address",
          "name": "implementation",
          "type": "address"
        }
      ],
      "name": "Upgraded",
      "type": "event"
    },
    {
      "inputs": [],
      "name": "DEFAULT_ADMIN_ROLE",
      "outputs": [
        {
          "internalType": "bytes32",
          "name": "",
          "type": "bytes32"
        }
      ],
      "stateMutability": "view",
      "type": "function"
    },
    {
      "inputs": [],
      "name": "PAUSER_ROLE",
      "outputs": [
        {
          "internalType": "bytes32",
          "name": "",
          "type": "bytes32"
        }
      ],
      "stateMutability": "view",
      "type": "function"
    },
    {
      "inputs": [],
      "name": "UPGRADER_ROLE",
      "outputs": [
        {
          "internalType": "bytes32",
          "name": "",
          "type": "bytes32"
        }
      ],
      "stateMutability": "view",
      "type": "function"
    },
    {
      "inputs": [
        {
          "internalType": "uint256",
          "name": "amountPEN",
          "type": "uint256"
        }
      ],
      "name": "comprarMtptkPorPEN",
      "outputs": [],
      "stateMutability": "nonpayable",
      "type": "function"
    },
    {
      "inputs": [
        {
          "internalType": "bytes32",
          "name": "role",
          "type": "bytes32"
        }
      ],
      "name": "getRoleAdmin",
      "outputs": [
        {
          "internalType": "bytes32",
          "name": "",
          "type": "bytes32"
        }
      ],
      "stateMutability": "view",
      "type": "function"
    },
    {
      "inputs": [
        {
          "internalType": "bytes32",
          "name": "role",
          "type": "bytes32"
        },
        {
          "internalType": "address",
          "name": "account",
          "type": "address"
        }
      ],
      "name": "grantRole",
      "outputs": [],
      "stateMutability": "nonpayable",
      "type": "function"
    },
    {
      "inputs": [
        {
          "internalType": "bytes32",
          "name": "role",
          "type": "bytes32"
        },
        {
          "internalType": "address",
          "name": "account",
          "type": "address"
        }
      ],
      "name": "hasRole",
      "outputs": [
        {
          "internalType": "bool",
          "name": "",
          "type": "bool"
        }
      ],
      "stateMutability": "view",
      "type": "function"
    },
    {
      "inputs": [
        {
          "internalType": "address",
          "name": "_penAddress",
          "type": "address"
        },
        {
          "internalType": "address",
          "name": "_swapperAddress",
          "type": "address"
        }
      ],
      "name": "initialize",
      "outputs": [],
      "stateMutability": "nonpayable",
      "type": "function"
    },
    {
      "inputs": [],
      "name": "pause",
      "outputs": [],
      "stateMutability": "nonpayable",
      "type": "function"
    },
    {
      "inputs": [],
      "name": "paused",
      "outputs": [
        {
          "internalType": "bool",
          "name": "",
          "type": "bool"
        }
      ],
      "stateMutability": "view",
      "type": "function"
    },
    {
      "inputs": [],
      "name": "proxiableUUID",
      "outputs": [
        {
          "internalType": "bytes32",
          "name": "",
          "type": "bytes32"
        }
      ],
      "stateMutability": "view",
      "type": "function"
    },
    {
      "inputs": [
        {
          "internalType": "bytes32",
          "name": "role",
          "type": "bytes32"
        },
        {
          "internalType": "address",
          "name": "account",
          "type": "address"
        }
      ],
      "name": "renounceRole",
      "outputs": [],
      "stateMutability": "nonpayable",
      "type": "function"
    },
    {
      "inputs": [
        {
          "internalType": "bytes32",
          "name": "role",
          "type": "bytes32"
        },
        {
          "internalType": "address",
          "name": "account",
          "type": "address"
        }
      ],
      "name": "revokeRole",
      "outputs": [],
      "stateMutability": "nonpayable",
      "type": "function"
    },
    {
      "inputs": [
        {
          "internalType": "uint256",
          "name": "_limite",
          "type": "uint256"
        }
      ],
      "name": "setLimitePremioNFTComun",
      "outputs": [],
      "stateMutability": "nonpayable",
      "type": "function"
    },
    {
      "inputs": [
        {
          "internalType": "uint256",
          "name": "_limite",
          "type": "uint256"
        }
      ],
      "name": "setLimitePremioNFTLegendario",
      "outputs": [],
      "stateMutability": "nonpayable",
      "type": "function"
    },
    {
      "inputs": [
        {
          "internalType": "bytes4",
          "name": "interfaceId",
          "type": "bytes4"
        }
      ],
      "name": "supportsInterface",
      "outputs": [
        {
          "internalType": "bool",
          "name": "",
          "type": "bool"
        }
      ],
      "stateMutability": "view",
      "type": "function"
    },
    {
      "inputs": [],
      "name": "unpause",
      "outputs": [],
      "stateMutability": "nonpayable",
      "type": "function"
    },
    {
      "inputs": [
        {
          "internalType": "address",
          "name": "newImplementation",
          "type": "address"
        }
      ],
      "name": "upgradeTo",
      "outputs": [],
      "stateMutability": "nonpayable",
      "type": "function"
    },
    {
      "inputs": [
        {
          "internalType": "address",
          "name": "newImplementation",
          "type": "address"
        },
        {
          "internalType": "bytes",
          "name": "data",
          "type": "bytes"
        }
      ],
      "name": "upgradeToAndCall",
      "outputs": [],
      "stateMutability": "payable",
      "type": "function"
    }
  ],
  "bytecode": "0x60a06040523073ffffffffffffffffffffffffffffffffffffffff1660809073ffffffffffffffffffffffffffffffffffffffff168152503480156200004457600080fd5b50620000556200005b60201b60201c565b62000206565b600060019054906101000a900460ff1615620000ae576040517f08c379a0000000000000000000000000000000000000000000000000000000008152600401620000a590620001a9565b60405180910390fd5b60ff801660008054906101000a900460ff1660ff161015620001205760ff6000806101000a81548160ff021916908360ff1602179055507f7f26b83ff96e1f2b6a682f133852f6798a09c465da95921460cefb384740249860ff604051620001179190620001e9565b60405180910390a15b565b600082825260208201905092915050565b7f496e697469616c697a61626c653a20636f6e747261637420697320696e69746960008201527f616c697a696e6700000000000000000000000000000000000000000000000000602082015250565b60006200019160278362000122565b91506200019e8262000133565b604082019050919050565b60006020820190508181036000830152620001c48162000182565b9050919050565b600060ff82169050919050565b620001e381620001cb565b82525050565b6000602082019050620002006000830184620001d8565b92915050565b60805161320a6200023e600039600081816108be0152818161094d01528181610cd501528181610d640152610e14015261320a6000f3fe6080604052600436106101145760003560e01c80634f1ef286116100a05780639345996d116100645780639345996d14610366578063a217fddf1461038f578063d547741f146103ba578063e63ab1e9146103e3578063f72c0d8b1461040e57610114565b80634f1ef286146102a057806352d1902d146102bc5780635c975abb146102e75780638456cb591461031257806391d148541461032957610114565b80632f2ff15d116100e75780632f2ff15d146101e557806336568abe1461020e5780633659cfe6146102375780633f4ba83a14610260578063485cc9551461027757610114565b806301ffc9a7146101195780631f0b075014610156578063248a9ca31461017f578063275db176146101bc575b600080fd5b34801561012557600080fd5b50610140600480360381019061013b9190611db7565b610439565b60405161014d9190611dff565b60405180910390f35b34801561016257600080fd5b5061017d60048036038101906101789190611e50565b6104b3565b005b34801561018b57600080fd5b506101a660048036038101906101a19190611eb3565b610757565b6040516101b39190611eef565b60405180910390f35b3480156101c857600080fd5b506101e360048036038101906101de9190611e50565b610777565b005b3480156101f157600080fd5b5061020c60048036038101906102079190611f68565b610818565b005b34801561021a57600080fd5b5061023560048036038101906102309190611f68565b610839565b005b34801561024357600080fd5b5061025e60048036038101906102599190611fa8565b6108bc565b005b34801561026c57600080fd5b50610275610a45565b005b34801561028357600080fd5b5061029e60048036038101906102999190611fd5565b610a7a565b005b6102ba60048036038101906102b5919061215b565b610cd3565b005b3480156102c857600080fd5b506102d1610e10565b6040516102de9190611eef565b60405180910390f35b3480156102f357600080fd5b506102fc610ec9565b6040516103099190611dff565b60405180910390f35b34801561031e57600080fd5b50610327610ee0565b005b34801561033557600080fd5b50610350600480360381019061034b9190611f68565b610f15565b60405161035d9190611dff565b60405180910390f35b34801561037257600080fd5b5061038d60048036038101906103889190611e50565b610f80565b005b34801561039b57600080fd5b506103a4611021565b6040516103b19190611eef565b60405180910390f35b3480156103c657600080fd5b506103e160048036038101906103dc9190611f68565b611028565b005b3480156103ef57600080fd5b506103f8611049565b6040516104059190611eef565b60405180910390f35b34801561041a57600080fd5b5061042361106d565b6040516104309190611eef565b60405180910390f35b60007f7965db0b000000000000000000000000000000000000000000000000000000007bffffffffffffffffffffffffffffffffffffffffffffffffffffffff1916827bffffffffffffffffffffffffffffffffffffffffffffffffffffffff191614806104ac57506104ab82611091565b5b9050919050565b600061012d60009054906101000a900473ffffffffffffffffffffffffffffffffffffffff1673ffffffffffffffffffffffffffffffffffffffff166370a08231336040518263ffffffff1660e01b815260040161051191906121c6565b60206040518083038186803b15801561052957600080fd5b505afa15801561053d573d6000803e3d6000fd5b505050506040513d601f19601f8201168201806040525081019061056191906121f6565b9050818110156105a6576040517f08c379a000000000000000000000000000000000000000000000000000000000815260040161059d906122a6565b60405180910390fd5b61012e60009054906101000a900473ffffffffffffffffffffffffffffffffffffffff1673ffffffffffffffffffffffffffffffffffffffff1663645e0c5a83336040518363ffffffff1660e01b81526004016106049291906122d5565b600060405180830381600087803b15801561061e57600080fd5b505af1158015610632573d6000803e3d6000fd5b505050506040513d6000823e3d601f19601f8201168201806040525081019061065b91906123c6565b5060646101305461066c919061243e565b82106106d95760766101325410156106d4577f0fb14faa8dd87fa73bb11bffa3ae62fbc6cfa2caa78f4395c8158a7f3b680be233610132546040516106b2929190612498565b60405180910390a161013260008154809291906106ce906124c1565b91905055505b610753565b606461012f546106e9919061243e565b8210610752576064610131541015610751577f0fb14faa8dd87fa73bb11bffa3ae62fbc6cfa2caa78f4395c8158a7f3b680be2336101315460405161072f929190612498565b60405180910390a1610131600081548092919061074b906124c1565b91905055505b5b5b5050565b600060976000838152602001908152602001600020600101549050919050565b6000801b610784816110fb565b600082116107c7576040517f08c379a00000000000000000000000000000000000000000000000000000000081526004016107be9061257c565b60405180910390fd5b61012f54821161080c576040517f08c379a00000000000000000000000000000000000000000000000000000000081526004016108039061260e565b60405180910390fd5b81610130819055505050565b61082182610757565b61082a816110fb565b610834838361110f565b505050565b6108416111f0565b73ffffffffffffffffffffffffffffffffffffffff168173ffffffffffffffffffffffffffffffffffffffff16146108ae576040517f08c379a00000000000000000000000000000000000000000000000000000000081526004016108a5906126a0565b60405180910390fd5b6108b882826111f8565b5050565b7f000000000000000000000000000000000000000000000000000000000000000073ffffffffffffffffffffffffffffffffffffffff163073ffffffffffffffffffffffffffffffffffffffff16141561094b576040517f08c379a000000000000000000000000000000000000000000000000000000000815260040161094290612732565b60405180910390fd5b7f000000000000000000000000000000000000000000000000000000000000000073ffffffffffffffffffffffffffffffffffffffff1661098a6112da565b73ffffffffffffffffffffffffffffffffffffffff16146109e0576040517f08c379a00000000000000000000000000000000000000000000000000000000081526004016109d7906127c4565b60405180910390fd5b6109e981611331565b610a4281600067ffffffffffffffff811115610a0857610a07612030565b5b6040519080825280601f01601f191660200182016040528015610a3a5781602001600182028036833780820191505090505b50600061135f565b50565b7f65d7a28e3265b37a6474929f336521b332c1681b933f6cb9f3376673440d862a610a6f816110fb565b610a776114dc565b50565b60008060019054906101000a900460ff16159050808015610aab5750600160008054906101000a900460ff1660ff16105b80610ad85750610aba3061153f565b158015610ad75750600160008054906101000a900460ff1660ff16145b5b610b17576040517f08c379a0000000000000000000000000000000000000000000000000000000008152600401610b0e90612856565b60405180910390fd5b60016000806101000a81548160ff021916908360ff1602179055508015610b54576001600060016101000a81548160ff0219169083151502179055505b610b5c611562565b610b646115bb565b610b6c61160c565b610b796000801b3361110f565b610ba37f65d7a28e3265b37a6474929f336521b332c1681b933f6cb9f3376673440d862a3361110f565b610bcd7f189ab7a9244df0848122154315af71fe140f3db0fe014031783b0946b8c9d2e33361110f565b603261012f819055506064610130819055508261012d60006101000a81548173ffffffffffffffffffffffffffffffffffffffff021916908373ffffffffffffffffffffffffffffffffffffffff1602179055508161012e60006101000a81548173ffffffffffffffffffffffffffffffffffffffff021916908373ffffffffffffffffffffffffffffffffffffffff1602179055506001610131819055506065610132819055508015610cce5760008060016101000a81548160ff0219169083151502179055507f7f26b83ff96e1f2b6a682f133852f6798a09c465da95921460cefb38474024986001604051610cc591906128c8565b60405180910390a15b505050565b7f000000000000000000000000000000000000000000000000000000000000000073ffffffffffffffffffffffffffffffffffffffff163073ffffffffffffffffffffffffffffffffffffffff161415610d62576040517f08c379a0000000000000000000000000000000000000000000000000000000008152600401610d5990612732565b60405180910390fd5b7f000000000000000000000000000000000000000000000000000000000000000073ffffffffffffffffffffffffffffffffffffffff16610da16112da565b73ffffffffffffffffffffffffffffffffffffffff1614610df7576040517f08c379a0000000000000000000000000000000000000000000000000000000008152600401610dee906127c4565b60405180910390fd5b610e0082611331565b610e0c8282600161135f565b5050565b60007f000000000000000000000000000000000000000000000000000000000000000073ffffffffffffffffffffffffffffffffffffffff163073ffffffffffffffffffffffffffffffffffffffff1614610ea0576040517f08c379a0000000000000000000000000000000000000000000000000000000008152600401610e9790612955565b60405180910390fd5b7f360894a13ba1a3210667c828492db98dca3e2076cc3735a920a3ca505d382bbc60001b905090565b6000603360009054906101000a900460ff16905090565b7f65d7a28e3265b37a6474929f336521b332c1681b933f6cb9f3376673440d862a610f0a816110fb565b610f1261165d565b50565b60006097600084815260200190815260200160002060000160008373ffffffffffffffffffffffffffffffffffffffff1673ffffffffffffffffffffffffffffffffffffffff16815260200190815260200160002060009054906101000a900460ff16905092915050565b6000801b610f8d816110fb565b60008211610fd0576040517f08c379a0000000000000000000000000000000000000000000000000000000008152600401610fc7906129e7565b60405180910390fd5b610130548210611015576040517f08c379a000000000000000000000000000000000000000000000000000000000815260040161100c90612a79565b60405180910390fd5b8161012f819055505050565b6000801b81565b61103182610757565b61103a816110fb565b61104483836111f8565b505050565b7f65d7a28e3265b37a6474929f336521b332c1681b933f6cb9f3376673440d862a81565b7f189ab7a9244df0848122154315af71fe140f3db0fe014031783b0946b8c9d2e381565b60007f01ffc9a7000000000000000000000000000000000000000000000000000000007bffffffffffffffffffffffffffffffffffffffffffffffffffffffff1916827bffffffffffffffffffffffffffffffffffffffffffffffffffffffff1916149050919050565b61110c816111076111f0565b6116c0565b50565b6111198282610f15565b6111ec5760016097600084815260200190815260200160002060000160008373ffffffffffffffffffffffffffffffffffffffff1673ffffffffffffffffffffffffffffffffffffffff16815260200190815260200160002060006101000a81548160ff0219169083151502179055506111916111f0565b73ffffffffffffffffffffffffffffffffffffffff168173ffffffffffffffffffffffffffffffffffffffff16837f2f8788117e7eff1d82e926ec794901d17c78024a50270940304540a733656f0d60405160405180910390a45b5050565b600033905090565b6112028282610f15565b156112d65760006097600084815260200190815260200160002060000160008373ffffffffffffffffffffffffffffffffffffffff1673ffffffffffffffffffffffffffffffffffffffff16815260200190815260200160002060006101000a81548160ff02191690831515021790555061127b6111f0565b73ffffffffffffffffffffffffffffffffffffffff168173ffffffffffffffffffffffffffffffffffffffff16837ff6391f5c32d9c69d2a47ea670b442974b53935d1edc7fd64eb21e047a839171b60405160405180910390a45b5050565b60006113087f360894a13ba1a3210667c828492db98dca3e2076cc3735a920a3ca505d382bbc60001b611745565b60000160009054906101000a900473ffffffffffffffffffffffffffffffffffffffff16905090565b7f189ab7a9244df0848122154315af71fe140f3db0fe014031783b0946b8c9d2e361135b816110fb565b5050565b61138b7f4910fdfa16fed3260ed0e7147f7cc6da11a60208b5b9406d12a635614ffd914360001b61174f565b60000160009054906101000a900460ff16156113af576113aa83611759565b6114d7565b8273ffffffffffffffffffffffffffffffffffffffff166352d1902d6040518163ffffffff1660e01b815260040160206040518083038186803b1580156113f557600080fd5b505afa92505050801561142657506040513d601f19601f820116820180604052508101906114239190612aae565b60015b611465576040517f08c379a000000000000000000000000000000000000000000000000000000000815260040161145c90612b4d565b60405180910390fd5b7f360894a13ba1a3210667c828492db98dca3e2076cc3735a920a3ca505d382bbc60001b81146114ca576040517f08c379a00000000000000000000000000000000000000000000000000000000081526004016114c190612bdf565b60405180910390fd5b506114d6838383611812565b5b505050565b6114e461183e565b6000603360006101000a81548160ff0219169083151502179055507f5db9ee0a495bf2e6ff9c91a7834c1ba4fdd244a5e8aa4e537bd38aeae4b073aa6115286111f0565b60405161153591906121c6565b60405180910390a1565b6000808273ffffffffffffffffffffffffffffffffffffffff163b119050919050565b600060019054906101000a900460ff166115b1576040517f08c379a00000000000000000000000000000000000000000000000000000000081526004016115a890612c71565b60405180910390fd5b6115b9611887565b565b600060019054906101000a900460ff1661160a576040517f08c379a000000000000000000000000000000000000000000000000000000000815260040161160190612c71565b60405180910390fd5b565b600060019054906101000a900460ff1661165b576040517f08c379a000000000000000000000000000000000000000000000000000000000815260040161165290612c71565b60405180910390fd5b565b6116656118f3565b6001603360006101000a81548160ff0219169083151502179055507f62e78cea01bee320cd4e420270b5ea74000d11b0c9f74754ebdbfc544b05a2586116a96111f0565b6040516116b691906121c6565b60405180910390a1565b6116ca8282610f15565b611741576116d78161193d565b6116e58360001c602061196a565b6040516020016116f6929190612da3565b6040516020818303038152906040526040517f08c379a00000000000000000000000000000000000000000000000000000000081526004016117389190612e16565b60405180910390fd5b5050565b6000819050919050565b6000819050919050565b6117628161153f565b6117a1576040517f08c379a000000000000000000000000000000000000000000000000000000000815260040161179890612eaa565b60405180910390fd5b806117ce7f360894a13ba1a3210667c828492db98dca3e2076cc3735a920a3ca505d382bbc60001b611745565b60000160006101000a81548173ffffffffffffffffffffffffffffffffffffffff021916908373ffffffffffffffffffffffffffffffffffffffff16021790555050565b61181b83611ba6565b6000825111806118285750805b15611839576118378383611bf5565b505b505050565b611846610ec9565b611885576040517f08c379a000000000000000000000000000000000000000000000000000000000815260040161187c90612f16565b60405180910390fd5b565b600060019054906101000a900460ff166118d6576040517f08c379a00000000000000000000000000000000000000000000000000000000081526004016118cd90612c71565b60405180910390fd5b6000603360006101000a81548160ff021916908315150217905550565b6118fb610ec9565b1561193b576040517f08c379a000000000000000000000000000000000000000000000000000000000815260040161193290612f82565b60405180910390fd5b565b60606119638273ffffffffffffffffffffffffffffffffffffffff16601460ff1661196a565b9050919050565b60606000600283600261197d919061243e565b6119879190612fa2565b67ffffffffffffffff8111156119a05761199f612030565b5b6040519080825280601f01601f1916602001820160405280156119d25781602001600182028036833780820191505090505b5090507f300000000000000000000000000000000000000000000000000000000000000081600081518110611a0a57611a09612ff8565b5b60200101907effffffffffffffffffffffffffffffffffffffffffffffffffffffffffffff1916908160001a9053507f780000000000000000000000000000000000000000000000000000000000000081600181518110611a6e57611a6d612ff8565b5b60200101907effffffffffffffffffffffffffffffffffffffffffffffffffffffffffffff1916908160001a90535060006001846002611aae919061243e565b611ab89190612fa2565b90505b6001811115611b58577f3031323334353637383961626364656600000000000000000000000000000000600f861660108110611afa57611af9612ff8565b5b1a60f81b828281518110611b1157611b10612ff8565b5b60200101907effffffffffffffffffffffffffffffffffffffffffffffffffffffffffffff1916908160001a905350600485901c945080611b5190613027565b9050611abb565b5060008414611b9c576040517f08c379a0000000000000000000000000000000000000000000000000000000008152600401611b939061309d565b60405180910390fd5b8091505092915050565b611baf81611759565b8073ffffffffffffffffffffffffffffffffffffffff167fbc7cd75a20ee27fd9adebab32041f755214dbc6bffa90cc0225b39da2e5c2d3b60405160405180910390a250565b6060611c008361153f565b611c3f576040517f08c379a0000000000000000000000000000000000000000000000000000000008152600401611c369061312f565b60405180910390fd5b6000808473ffffffffffffffffffffffffffffffffffffffff1684604051611c679190613196565b600060405180830381855af49150503d8060008114611ca2576040519150601f19603f3d011682016040523d82523d6000602084013e611ca7565b606091505b5091509150611ccf82826040518060600160405280602781526020016131ae60279139611cd9565b9250505092915050565b60608315611ce957829050611cf4565b611cf38383611cfb565b5b9392505050565b600082511115611d0e5781518083602001fd5b806040517f08c379a0000000000000000000000000000000000000000000000000000000008152600401611d429190612e16565b60405180910390fd5b6000604051905090565b600080fd5b600080fd5b60007fffffffff0000000000000000000000000000000000000000000000000000000082169050919050565b611d9481611d5f565b8114611d9f57600080fd5b50565b600081359050611db181611d8b565b92915050565b600060208284031215611dcd57611dcc611d55565b5b6000611ddb84828501611da2565b91505092915050565b60008115159050919050565b611df981611de4565b82525050565b6000602082019050611e146000830184611df0565b92915050565b6000819050919050565b611e2d81611e1a565b8114611e3857600080fd5b50565b600081359050611e4a81611e24565b92915050565b600060208284031215611e6657611e65611d55565b5b6000611e7484828501611e3b565b91505092915050565b6000819050919050565b611e9081611e7d565b8114611e9b57600080fd5b50565b600081359050611ead81611e87565b92915050565b600060208284031215611ec957611ec8611d55565b5b6000611ed784828501611e9e565b91505092915050565b611ee981611e7d565b82525050565b6000602082019050611f046000830184611ee0565b92915050565b600073ffffffffffffffffffffffffffffffffffffffff82169050919050565b6000611f3582611f0a565b9050919050565b611f4581611f2a565b8114611f5057600080fd5b50565b600081359050611f6281611f3c565b92915050565b60008060408385031215611f7f57611f7e611d55565b5b6000611f8d85828601611e9e565b9250506020611f9e85828601611f53565b9150509250929050565b600060208284031215611fbe57611fbd611d55565b5b6000611fcc84828501611f53565b91505092915050565b60008060408385031215611fec57611feb611d55565b5b6000611ffa85828601611f53565b925050602061200b85828601611f53565b9150509250929050565b600080fd5b600080fd5b6000601f19601f8301169050919050565b7f4e487b7100000000000000000000000000000000000000000000000000000000600052604160045260246000fd5b6120688261201f565b810181811067ffffffffffffffff8211171561208757612086612030565b5b80604052505050565b600061209a611d4b565b90506120a6828261205f565b919050565b600067ffffffffffffffff8211156120c6576120c5612030565b5b6120cf8261201f565b9050602081019050919050565b82818337600083830152505050565b60006120fe6120f9846120ab565b612090565b90508281526020810184848401111561211a5761211961201a565b5b6121258482856120dc565b509392505050565b600082601f83011261214257612141612015565b5b81356121528482602086016120eb565b91505092915050565b6000806040838503121561217257612171611d55565b5b600061218085828601611f53565b925050602083013567ffffffffffffffff8111156121a1576121a0611d5a565b5b6121ad8582860161212d565b9150509250929050565b6121c081611f2a565b82525050565b60006020820190506121db60008301846121b7565b92915050565b6000815190506121f081611e24565b92915050565b60006020828403121561220c5761220b611d55565b5b600061221a848285016121e1565b91505092915050565b600082825260208201905092915050565b7f4e6f207469656e6520737566696369656e74652050454e20706172612072656160008201527f6c697a6172206c61207472616e73616363696f6e000000000000000000000000602082015250565b6000612290603483612223565b915061229b82612234565b604082019050919050565b600060208201905081810360008301526122bf81612283565b9050919050565b6122cf81611e1a565b82525050565b60006040820190506122ea60008301856122c6565b6122f760208301846121b7565b9392505050565b600067ffffffffffffffff82111561231957612318612030565b5b602082029050602081019050919050565b600080fd5b600061234261233d846122fe565b612090565b905080838252602082019050602084028301858111156123655761236461232a565b5b835b8181101561238e578061237a88826121e1565b845260208401935050602081019050612367565b5050509392505050565b600082601f8301126123ad576123ac612015565b5b81516123bd84826020860161232f565b91505092915050565b6000602082840312156123dc576123db611d55565b5b600082015167ffffffffffffffff8111156123fa576123f9611d5a565b5b61240684828501612398565b91505092915050565b7f4e487b7100000000000000000000000000000000000000000000000000000000600052601160045260246000fd5b600061244982611e1a565b915061245483611e1a565b9250817fffffffffffffffffffffffffffffffffffffffffffffffffffffffffffffffff048311821515161561248d5761248c61240f565b5b828202905092915050565b60006040820190506124ad60008301856121b7565b6124ba60208301846122c6565b9392505050565b60006124cc82611e1a565b91507fffffffffffffffffffffffffffffffffffffffffffffffffffffffffffffffff8214156124ff576124fe61240f565b5b600182019050919050565b7f4c696d6974652070617261206c6567656e646172696f206e6f2070756564652060008201527f736572206d656e6f7220717565206365726f0000000000000000000000000000602082015250565b6000612566603283612223565b91506125718261250a565b604082019050919050565b6000602082019050818103600083015261259581612559565b9050919050565b7f4c696d6974652070617261206c6567656e646172696f206e6f2070756564652060008201527f736572206d656e6f7220616c2064656c20636f6d756e00000000000000000000602082015250565b60006125f8603683612223565b91506126038261259c565b604082019050919050565b60006020820190508181036000830152612627816125eb565b9050919050565b7f416363657373436f6e74726f6c3a2063616e206f6e6c792072656e6f756e636560008201527f20726f6c657320666f722073656c660000000000000000000000000000000000602082015250565b600061268a602f83612223565b91506126958261262e565b604082019050919050565b600060208201905081810360008301526126b98161267d565b9050919050565b7f46756e6374696f6e206d7573742062652063616c6c6564207468726f7567682060008201527f64656c656761746563616c6c0000000000000000000000000000000000000000602082015250565b600061271c602c83612223565b9150612727826126c0565b604082019050919050565b6000602082019050818103600083015261274b8161270f565b9050919050565b7f46756e6374696f6e206d7573742062652063616c6c6564207468726f7567682060008201527f6163746976652070726f78790000000000000000000000000000000000000000602082015250565b60006127ae602c83612223565b91506127b982612752565b604082019050919050565b600060208201905081810360008301526127dd816127a1565b9050919050565b7f496e697469616c697a61626c653a20636f6e747261637420697320616c72656160008201527f647920696e697469616c697a6564000000000000000000000000000000000000602082015250565b6000612840602e83612223565b915061284b826127e4565b604082019050919050565b6000602082019050818103600083015261286f81612833565b9050919050565b6000819050919050565b600060ff82169050919050565b6000819050919050565b60006128b26128ad6128a884612876565b61288d565b612880565b9050919050565b6128c281612897565b82525050565b60006020820190506128dd60008301846128b9565b92915050565b7f555550535570677261646561626c653a206d757374206e6f742062652063616c60008201527f6c6564207468726f7567682064656c656761746563616c6c0000000000000000602082015250565b600061293f603883612223565b915061294a826128e3565b604082019050919050565b6000602082019050818103600083015261296e81612932565b9050919050565b7f4c696d697465207061726120636f6d756e206e6f20707565646520736572206d60008201527f656e6f7220717565206365726f00000000000000000000000000000000000000602082015250565b60006129d1602d83612223565b91506129dc82612975565b604082019050919050565b60006020820190508181036000830152612a00816129c4565b9050919050565b7f4c696d697465207061726120636f6d756e206e6f20707565646520736572206d60008201527f61796f7220616c2064656c206c6567656e646172696f00000000000000000000602082015250565b6000612a63603683612223565b9150612a6e82612a07565b604082019050919050565b60006020820190508181036000830152612a9281612a56565b9050919050565b600081519050612aa881611e87565b92915050565b600060208284031215612ac457612ac3611d55565b5b6000612ad284828501612a99565b91505092915050565b7f45524331393637557067726164653a206e657720696d706c656d656e7461746960008201527f6f6e206973206e6f742055555053000000000000000000000000000000000000602082015250565b6000612b37602e83612223565b9150612b4282612adb565b604082019050919050565b60006020820190508181036000830152612b6681612b2a565b9050919050565b7f45524331393637557067726164653a20756e737570706f727465642070726f7860008201527f6961626c65555549440000000000000000000000000000000000000000000000602082015250565b6000612bc9602983612223565b9150612bd482612b6d565b604082019050919050565b60006020820190508181036000830152612bf881612bbc565b9050919050565b7f496e697469616c697a61626c653a20636f6e7472616374206973206e6f74206960008201527f6e697469616c697a696e67000000000000000000000000000000000000000000602082015250565b6000612c5b602b83612223565b9150612c6682612bff565b604082019050919050565b60006020820190508181036000830152612c8a81612c4e565b9050919050565b600081905092915050565b7f416363657373436f6e74726f6c3a206163636f756e7420000000000000000000600082015250565b6000612cd2601783612c91565b9150612cdd82612c9c565b601782019050919050565b600081519050919050565b60005b83811015612d11578082015181840152602081019050612cf6565b83811115612d20576000848401525b50505050565b6000612d3182612ce8565b612d3b8185612c91565b9350612d4b818560208601612cf3565b80840191505092915050565b7f206973206d697373696e6720726f6c6520000000000000000000000000000000600082015250565b6000612d8d601183612c91565b9150612d9882612d57565b601182019050919050565b6000612dae82612cc5565b9150612dba8285612d26565b9150612dc582612d80565b9150612dd18284612d26565b91508190509392505050565b6000612de882612ce8565b612df28185612223565b9350612e02818560208601612cf3565b612e0b8161201f565b840191505092915050565b60006020820190508181036000830152612e308184612ddd565b905092915050565b7f455243313936373a206e657720696d706c656d656e746174696f6e206973206e60008201527f6f74206120636f6e747261637400000000000000000000000000000000000000602082015250565b6000612e94602d83612223565b9150612e9f82612e38565b604082019050919050565b60006020820190508181036000830152612ec381612e87565b9050919050565b7f5061757361626c653a206e6f7420706175736564000000000000000000000000600082015250565b6000612f00601483612223565b9150612f0b82612eca565b602082019050919050565b60006020820190508181036000830152612f2f81612ef3565b9050919050565b7f5061757361626c653a2070617573656400000000000000000000000000000000600082015250565b6000612f6c601083612223565b9150612f7782612f36565b602082019050919050565b60006020820190508181036000830152612f9b81612f5f565b9050919050565b6000612fad82611e1a565b9150612fb883611e1a565b9250827fffffffffffffffffffffffffffffffffffffffffffffffffffffffffffffffff03821115612fed57612fec61240f565b5b828201905092915050565b7f4e487b7100000000000000000000000000000000000000000000000000000000600052603260045260246000fd5b600061303282611e1a565b915060008214156130465761304561240f565b5b600182039050919050565b7f537472696e67733a20686578206c656e67746820696e73756666696369656e74600082015250565b6000613087602083612223565b915061309282613051565b602082019050919050565b600060208201905081810360008301526130b68161307a565b9050919050565b7f416464726573733a2064656c65676174652063616c6c20746f206e6f6e2d636f60008201527f6e74726163740000000000000000000000000000000000000000000000000000602082015250565b6000613119602683612223565b9150613124826130bd565b604082019050919050565b600060208201905081810360008301526131488161310c565b9050919050565b600081519050919050565b600081905092915050565b60006131708261314f565b61317a818561315a565b935061318a818560208601612cf3565b80840191505092915050565b60006131a28284613165565b91508190509291505056fe416464726573733a206c6f772d6c6576656c2064656c65676174652063616c6c206661696c6564a2646970667358221220ccaed569e5df692bbe77f657b7c7a7b724f82b0ad306d3895f40d6f4407e6f8e64736f6c63430008090033",
  "linkReferences": {},
  "deployedLinkReferences": {}
}