{
  "_format": "hh-sol-artifact-1",
  "contractName": "MetropolitanSwap",
  "sourceName": "contracts/MetropolitanSwap.sol",
  "abi": [
    {
      "anonymous": false,
      "inputs": [
        {
          "indexed": false,
          "internalType": "address",
          "name": "previousAdmin",
          "type": "address"
        },
        {
          "indexed": false,
          "internalType": "address",
          "name": "newAdmin",
          "type": "address"
        }
      ],
      "name": "AdminChanged",
      "type": "event"
    },
    {
      "anonymous": false,
      "inputs": [
        {
          "indexed": true,
          "internalType": "address",
          "name": "beacon",
          "type": "address"
        }
      ],
      "name": "BeaconUpgraded",
      "type": "event"
    },
    {
      "anonymous": false,
      "inputs": [
        {
          "indexed": false,
          "internalType": "uint8",
          "name": "version",
          "type": "uint8"
        }
      ],
      "name": "Initialized",
      "type": "event"
    },
    {
      "anonymous": false,
      "inputs": [
        {
          "indexed": false,
          "internalType": "uint256",
          "name": "amntA",
          "type": "uint256"
        },
        {
          "indexed": false,
          "internalType": "uint256",
          "name": "amntB",
          "type": "uint256"
        },
        {
          "indexed": false,
          "internalType": "uint256",
          "name": "liquidity",
          "type": "uint256"
        }
      ],
      "name": "Liquidity",
      "type": "event"
    },
    {
      "anonymous": false,
      "inputs": [
        {
          "indexed": false,
          "internalType": "uint256[]",
          "name": "amounts",
          "type": "uint256[]"
        }
      ],
      "name": "SwapTokensForExactTokens",
      "type": "event"
    },
    {
      "anonymous": false,
      "inputs": [
        {
          "indexed": true,
          "internalType": "address",
          "name": "implementation",
          "type": "address"
        }
      ],
      "name": "Upgraded",
      "type": "event"
    },
    {
      "inputs": [
        {
          "internalType": "uint256",
          "name": "_amountA",
          "type": "uint256"
        },
        {
          "internalType": "uint256",
          "name": "_amountB",
          "type": "uint256"
        }
      ],
      "name": "addLiquidity",
      "outputs": [
        {
          "internalType": "uint256",
          "name": "amntA",
          "type": "uint256"
        },
        {
          "internalType": "uint256",
          "name": "amntB",
          "type": "uint256"
        },
        {
          "internalType": "uint256",
          "name": "liquidity",
          "type": "uint256"
        }
      ],
      "stateMutability": "nonpayable",
      "type": "function"
    },
    {
      "inputs": [],
      "name": "createPair",
      "outputs": [],
      "stateMutability": "nonpayable",
      "type": "function"
    },
    {
      "inputs": [],
      "name": "getPair",
      "outputs": [
        {
          "internalType": "address",
          "name": "",
          "type": "address"
        }
      ],
      "stateMutability": "view",
      "type": "function"
    },
    {
      "inputs": [
        {
          "internalType": "address",
          "name": "_tokenA",
          "type": "address"
        },
        {
          "internalType": "address",
          "name": "_tokenB",
          "type": "address"
        }
      ],
      "name": "initialize",
      "outputs": [],
      "stateMutability": "nonpayable",
      "type": "function"
    },
    {
      "inputs": [],
      "name": "proxiableUUID",
      "outputs": [
        {
          "internalType": "bytes32",
          "name": "",
          "type": "bytes32"
        }
      ],
      "stateMutability": "view",
      "type": "function"
    },
    {
      "inputs": [
        {
          "internalType": "uint256",
          "name": "amountIn",
          "type": "uint256"
        },
        {
          "internalType": "address",
          "name": "_sender",
          "type": "address"
        }
      ],
      "name": "swapExactTokensForTokens",
      "outputs": [
        {
          "internalType": "uint256[]",
          "name": "amounts",
          "type": "uint256[]"
        }
      ],
      "stateMutability": "nonpayable",
      "type": "function"
    },
    {
      "inputs": [
        {
          "internalType": "uint256",
          "name": "amountOut",
          "type": "uint256"
        },
        {
          "internalType": "uint256",
          "name": "amountInMax",
          "type": "uint256"
        }
      ],
      "name": "swapTokensForExactTokens",
      "outputs": [
        {
          "internalType": "uint256[]",
          "name": "amounts",
          "type": "uint256[]"
        }
      ],
      "stateMutability": "nonpayable",
      "type": "function"
    },
    {
      "inputs": [
        {
          "internalType": "address",
          "name": "newImplementation",
          "type": "address"
        }
      ],
      "name": "upgradeTo",
      "outputs": [],
      "stateMutability": "nonpayable",
      "type": "function"
    },
    {
      "inputs": [
        {
          "internalType": "address",
          "name": "newImplementation",
          "type": "address"
        },
        {
          "internalType": "bytes",
          "name": "data",
          "type": "bytes"
        }
      ],
      "name": "upgradeToAndCall",
      "outputs": [],
      "stateMutability": "payable",
      "type": "function"
    }
  ],
  "bytecode": "0x60a06040523073ffffffffffffffffffffffffffffffffffffffff1660809073ffffffffffffffffffffffffffffffffffffffff1681525034801561004357600080fd5b50608051612af461007b60003960008181610221015281816102b0015281816106dc0152818161076b015261081b0152612af46000f3fe6080604052600436106100865760003560e01c806360fefe141161005957806360fefe1414610124578063645e0c5a146101615780639cd441da1461019e5780639e78fb4f146101dd578063c1f1b1b5146101f457610086565b80633659cfe61461008b578063485cc955146100b45780634f1ef286146100dd57806352d1902d146100f9575b600080fd5b34801561009757600080fd5b506100b260048036038101906100ad9190611a39565b61021f565b005b3480156100c057600080fd5b506100db60048036038101906100d69190611a66565b6103a8565b005b6100f760048036038101906100f29190611bec565b6106da565b005b34801561010557600080fd5b5061010e610817565b60405161011b9190611c61565b60405180910390f35b34801561013057600080fd5b5061014b60048036038101906101469190611cb2565b6108d0565b6040516101589190611db0565b60405180910390f35b34801561016d57600080fd5b5061018860048036038101906101839190611dd2565b610cb6565b6040516101959190611db0565b60405180910390f35b3480156101aa57600080fd5b506101c560048036038101906101c09190611cb2565b610f90565b6040516101d493929190611e21565b60405180910390f35b3480156101e957600080fd5b506101f26112b1565b005b34801561020057600080fd5b506102096113e6565b6040516102169190611e67565b60405180910390f35b7f000000000000000000000000000000000000000000000000000000000000000073ffffffffffffffffffffffffffffffffffffffff163073ffffffffffffffffffffffffffffffffffffffff1614156102ae576040517f08c379a00000000000000000000000000000000000000000000000000000000081526004016102a590611f05565b60405180910390fd5b7f000000000000000000000000000000000000000000000000000000000000000073ffffffffffffffffffffffffffffffffffffffff166102ed6114de565b73ffffffffffffffffffffffffffffffffffffffff1614610343576040517f08c379a000000000000000000000000000000000000000000000000000000000815260040161033a90611f97565b60405180910390fd5b61034c81611535565b6103a581600067ffffffffffffffff81111561036b5761036a611ac1565b5b6040519080825280601f01601f19166020018201604052801561039d5781602001600182028036833780820191505090505b506000611538565b50565b60008060019054906101000a900460ff161590508080156103d95750600160008054906101000a900460ff1660ff16105b8061040657506103e8306116b5565b1580156104055750600160008054906101000a900460ff1660ff16145b5b610445576040517f08c379a000000000000000000000000000000000000000000000000000000000815260040161043c90612029565b60405180910390fd5b60016000806101000a81548160ff021916908360ff1602179055508015610482576001600060016101000a81548160ff0219169083151502179055505b61048a6116d8565b737a250d5630b4cf539739df2c5dacb4c659f2488d606560006101000a81548173ffffffffffffffffffffffffffffffffffffffff021916908373ffffffffffffffffffffffffffffffffffffffff160217905550606560009054906101000a900473ffffffffffffffffffffffffffffffffffffffff16606660006101000a81548173ffffffffffffffffffffffffffffffffffffffff021916908373ffffffffffffffffffffffffffffffffffffffff160217905550735c69bee701ef814a2b6a3edd4b1652cb9cc5aa6f606760006101000a81548173ffffffffffffffffffffffffffffffffffffffff021916908373ffffffffffffffffffffffffffffffffffffffff160217905550606760009054906101000a900473ffffffffffffffffffffffffffffffffffffffff16606860006101000a81548173ffffffffffffffffffffffffffffffffffffffff021916908373ffffffffffffffffffffffffffffffffffffffff16021790555082606960006101000a81548173ffffffffffffffffffffffffffffffffffffffff021916908373ffffffffffffffffffffffffffffffffffffffff16021790555081606a60006101000a81548173ffffffffffffffffffffffffffffffffffffffff021916908373ffffffffffffffffffffffffffffffffffffffff16021790555080156106d55760008060016101000a81548160ff0219169083151502179055507f7f26b83ff96e1f2b6a682f133852f6798a09c465da95921460cefb384740249860016040516106cc919061209b565b60405180910390a15b505050565b7f000000000000000000000000000000000000000000000000000000000000000073ffffffffffffffffffffffffffffffffffffffff163073ffffffffffffffffffffffffffffffffffffffff161415610769576040517f08c379a000000000000000000000000000000000000000000000000000000000815260040161076090611f05565b60405180910390fd5b7f000000000000000000000000000000000000000000000000000000000000000073ffffffffffffffffffffffffffffffffffffffff166107a86114de565b73ffffffffffffffffffffffffffffffffffffffff16146107fe576040517f08c379a00000000000000000000000000000000000000000000000000000000081526004016107f590611f97565b60405180910390fd5b61080782611535565b61081382826001611538565b5050565b60007f000000000000000000000000000000000000000000000000000000000000000073ffffffffffffffffffffffffffffffffffffffff163073ffffffffffffffffffffffffffffffffffffffff16146108a7576040517f08c379a000000000000000000000000000000000000000000000000000000000815260040161089e90612128565b60405180910390fd5b7f360894a13ba1a3210667c828492db98dca3e2076cc3735a920a3ca505d382bbc60001b905090565b60606000600267ffffffffffffffff8111156108ef576108ee611ac1565b5b60405190808252806020026020018201604052801561091d5781602001602082028036833780820191505090505b509050606960009054906101000a900473ffffffffffffffffffffffffffffffffffffffff168160008151811061095757610956612148565b5b602002602001019073ffffffffffffffffffffffffffffffffffffffff16908173ffffffffffffffffffffffffffffffffffffffff1681525050606a60009054906101000a900473ffffffffffffffffffffffffffffffffffffffff16816001815181106109c8576109c7612148565b5b602002602001019073ffffffffffffffffffffffffffffffffffffffff16908173ffffffffffffffffffffffffffffffffffffffff168152505060003390506000429050606a60009054906101000a900473ffffffffffffffffffffffffffffffffffffffff1673ffffffffffffffffffffffffffffffffffffffff1663095ea7b3606560009054906101000a900473ffffffffffffffffffffffffffffffffffffffff16876040518363ffffffff1660e01b8152600401610a8b929190612177565b602060405180830381600087803b158015610aa557600080fd5b505af1158015610ab9573d6000803e3d6000fd5b505050506040513d601f19601f82011682018060405250810190610add91906121d8565b506000606660009054906101000a900473ffffffffffffffffffffffffffffffffffffffff1673ffffffffffffffffffffffffffffffffffffffff16638803dbee88888787876040518663ffffffff1660e01b8152600401610b439594939291906122c3565b600060405180830381600087803b158015610b5d57600080fd5b505af1158015610b71573d6000803e3d6000fd5b505050506040513d6000823e3d601f19601f82011682018060405250810190610b9a91906123fa565b9050606a60009054906101000a900473ffffffffffffffffffffffffffffffffffffffff1673ffffffffffffffffffffffffffffffffffffffff1663a9059cbb3383600081518110610bef57610bee612148565b5b602002602001015189610c029190612472565b6040518363ffffffff1660e01b8152600401610c1f929190612177565b602060405180830381600087803b158015610c3957600080fd5b505af1158015610c4d573d6000803e3d6000fd5b505050506040513d601f19601f82011682018060405250810190610c7191906121d8565b507f9f4f447754ef2e90f091d06de57ee2825b77486ffe645b707f9e8f55e87cdffa81604051610ca19190611db0565b60405180910390a18094505050505092915050565b60606000600190506000600267ffffffffffffffff811115610cdb57610cda611ac1565b5b604051908082528060200260200182016040528015610d095781602001602082028036833780820191505090505b509050606960009054906101000a900473ffffffffffffffffffffffffffffffffffffffff1681600081518110610d4357610d42612148565b5b602002602001019073ffffffffffffffffffffffffffffffffffffffff16908173ffffffffffffffffffffffffffffffffffffffff1681525050606a60009054906101000a900473ffffffffffffffffffffffffffffffffffffffff1681600181518110610db457610db3612148565b5b602002602001019073ffffffffffffffffffffffffffffffffffffffff16908173ffffffffffffffffffffffffffffffffffffffff168152505060008490506000429050606960009054906101000a900473ffffffffffffffffffffffffffffffffffffffff1673ffffffffffffffffffffffffffffffffffffffff1663095ea7b3606560009054906101000a900473ffffffffffffffffffffffffffffffffffffffff16896040518363ffffffff1660e01b8152600401610e77929190612177565b602060405180830381600087803b158015610e9157600080fd5b505af1158015610ea5573d6000803e3d6000fd5b505050506040513d601f19601f82011682018060405250810190610ec991906121d8565b50606660009054906101000a900473ffffffffffffffffffffffffffffffffffffffff1673ffffffffffffffffffffffffffffffffffffffff166338ed173988868686866040518663ffffffff1660e01b8152600401610f2d9594939291906122c3565b600060405180830381600087803b158015610f4757600080fd5b505af1158015610f5b573d6000803e3d6000fd5b505050506040513d6000823e3d601f19601f82011682018060405250810190610f8491906123fa565b94505050505092915050565b600080600080606486610fa391906124a6565b90506000670de0b6b3a764000086610fbb91906124a6565b9050606960009054906101000a900473ffffffffffffffffffffffffffffffffffffffff1673ffffffffffffffffffffffffffffffffffffffff1663095ea7b3606560009054906101000a900473ffffffffffffffffffffffffffffffffffffffff16846040518363ffffffff1660e01b815260040161103c929190612177565b602060405180830381600087803b15801561105657600080fd5b505af115801561106a573d6000803e3d6000fd5b505050506040513d601f19601f8201168201806040525081019061108e91906121d8565b50606a60009054906101000a900473ffffffffffffffffffffffffffffffffffffffff1673ffffffffffffffffffffffffffffffffffffffff1663095ea7b3606560009054906101000a900473ffffffffffffffffffffffffffffffffffffffff16836040518363ffffffff1660e01b815260040161110e929190612177565b602060405180830381600087803b15801561112857600080fd5b505af115801561113c573d6000803e3d6000fd5b505050506040513d601f19601f8201168201806040525081019061116091906121d8565b50606660009054906101000a900473ffffffffffffffffffffffffffffffffffffffff1673ffffffffffffffffffffffffffffffffffffffff1663e8e33700606960009054906101000a900473ffffffffffffffffffffffffffffffffffffffff16606a60009054906101000a900473ffffffffffffffffffffffffffffffffffffffff16858560018033426040518963ffffffff1660e01b815260040161120f989796959493929190612531565b606060405180830381600087803b15801561122957600080fd5b505af115801561123d573d6000803e3d6000fd5b505050506040513d601f19601f8201168201806040525081019061126191906125af565b8095508196508297505050507f85c618ed7239e2f7195c5a9f053b4c57f7c4abba8f27c1a33c957ba05a1d12228585856040516112a093929190611e21565b60405180910390a150509250925092565b606860009054906101000a900473ffffffffffffffffffffffffffffffffffffffff1673ffffffffffffffffffffffffffffffffffffffff1663c9c65396606960009054906101000a900473ffffffffffffffffffffffffffffffffffffffff16606a60009054906101000a900473ffffffffffffffffffffffffffffffffffffffff166040518363ffffffff1660e01b8152600401611352929190612602565b602060405180830381600087803b15801561136c57600080fd5b505af1158015611380573d6000803e3d6000fd5b505050506040513d601f19601f820116820180604052508101906113a49190612640565b606b60006101000a81548173ffffffffffffffffffffffffffffffffffffffff021916908373ffffffffffffffffffffffffffffffffffffffff160217905550565b6000606860009054906101000a900473ffffffffffffffffffffffffffffffffffffffff1673ffffffffffffffffffffffffffffffffffffffff1663e6a43905606960009054906101000a900473ffffffffffffffffffffffffffffffffffffffff16606a60009054906101000a900473ffffffffffffffffffffffffffffffffffffffff166040518363ffffffff1660e01b8152600401611489929190612602565b60206040518083038186803b1580156114a157600080fd5b505afa1580156114b5573d6000803e3d6000fd5b505050506040513d601f19601f820116820180604052508101906114d99190612640565b905090565b600061150c7f360894a13ba1a3210667c828492db98dca3e2076cc3735a920a3ca505d382bbc60001b611729565b60000160009054906101000a900473ffffffffffffffffffffffffffffffffffffffff16905090565b50565b6115647f4910fdfa16fed3260ed0e7147f7cc6da11a60208b5b9406d12a635614ffd914360001b611733565b60000160009054906101000a900460ff1615611588576115838361173d565b6116b0565b8273ffffffffffffffffffffffffffffffffffffffff166352d1902d6040518163ffffffff1660e01b815260040160206040518083038186803b1580156115ce57600080fd5b505afa9250505080156115ff57506040513d601f19601f820116820180604052508101906115fc9190612699565b60015b61163e576040517f08c379a000000000000000000000000000000000000000000000000000000000815260040161163590612738565b60405180910390fd5b7f360894a13ba1a3210667c828492db98dca3e2076cc3735a920a3ca505d382bbc60001b81146116a3576040517f08c379a000000000000000000000000000000000000000000000000000000000815260040161169a906127ca565b60405180910390fd5b506116af8383836117f6565b5b505050565b6000808273ffffffffffffffffffffffffffffffffffffffff163b119050919050565b600060019054906101000a900460ff16611727576040517f08c379a000000000000000000000000000000000000000000000000000000000815260040161171e9061285c565b60405180910390fd5b565b6000819050919050565b6000819050919050565b611746816116b5565b611785576040517f08c379a000000000000000000000000000000000000000000000000000000000815260040161177c906128ee565b60405180910390fd5b806117b27f360894a13ba1a3210667c828492db98dca3e2076cc3735a920a3ca505d382bbc60001b611729565b60000160006101000a81548173ffffffffffffffffffffffffffffffffffffffff021916908373ffffffffffffffffffffffffffffffffffffffff16021790555050565b6117ff83611822565b60008251118061180c5750805b1561181d5761181b8383611871565b505b505050565b61182b8161173d565b8073ffffffffffffffffffffffffffffffffffffffff167fbc7cd75a20ee27fd9adebab32041f755214dbc6bffa90cc0225b39da2e5c2d3b60405160405180910390a250565b606061187c836116b5565b6118bb576040517f08c379a00000000000000000000000000000000000000000000000000000000081526004016118b290612980565b60405180910390fd5b6000808473ffffffffffffffffffffffffffffffffffffffff16846040516118e39190612a1a565b600060405180830381855af49150503d806000811461191e576040519150601f19603f3d011682016040523d82523d6000602084013e611923565b606091505b509150915061194b8282604051806060016040528060278152602001612a9860279139611955565b9250505092915050565b6060831561196557829050611970565b61196f8383611977565b5b9392505050565b60008251111561198a5781518083602001fd5b806040517f08c379a00000000000000000000000000000000000000000000000000000000081526004016119be9190612a75565b60405180910390fd5b6000604051905090565b600080fd5b600080fd5b600073ffffffffffffffffffffffffffffffffffffffff82169050919050565b6000611a06826119db565b9050919050565b611a16816119fb565b8114611a2157600080fd5b50565b600081359050611a3381611a0d565b92915050565b600060208284031215611a4f57611a4e6119d1565b5b6000611a5d84828501611a24565b91505092915050565b60008060408385031215611a7d57611a7c6119d1565b5b6000611a8b85828601611a24565b9250506020611a9c85828601611a24565b9150509250929050565b600080fd5b600080fd5b6000601f19601f8301169050919050565b7f4e487b7100000000000000000000000000000000000000000000000000000000600052604160045260246000fd5b611af982611ab0565b810181811067ffffffffffffffff82111715611b1857611b17611ac1565b5b80604052505050565b6000611b2b6119c7565b9050611b378282611af0565b919050565b600067ffffffffffffffff821115611b5757611b56611ac1565b5b611b6082611ab0565b9050602081019050919050565b82818337600083830152505050565b6000611b8f611b8a84611b3c565b611b21565b905082815260208101848484011115611bab57611baa611aab565b5b611bb6848285611b6d565b509392505050565b600082601f830112611bd357611bd2611aa6565b5b8135611be3848260208601611b7c565b91505092915050565b60008060408385031215611c0357611c026119d1565b5b6000611c1185828601611a24565b925050602083013567ffffffffffffffff811115611c3257611c316119d6565b5b611c3e85828601611bbe565b9150509250929050565b6000819050919050565b611c5b81611c48565b82525050565b6000602082019050611c766000830184611c52565b92915050565b6000819050919050565b611c8f81611c7c565b8114611c9a57600080fd5b50565b600081359050611cac81611c86565b92915050565b60008060408385031215611cc957611cc86119d1565b5b6000611cd785828601611c9d565b9250506020611ce885828601611c9d565b9150509250929050565b600081519050919050565b600082825260208201905092915050565b6000819050602082019050919050565b611d2781611c7c565b82525050565b6000611d398383611d1e565b60208301905092915050565b6000602082019050919050565b6000611d5d82611cf2565b611d678185611cfd565b9350611d7283611d0e565b8060005b83811015611da3578151611d8a8882611d2d565b9750611d9583611d45565b925050600181019050611d76565b5085935050505092915050565b60006020820190508181036000830152611dca8184611d52565b905092915050565b60008060408385031215611de957611de86119d1565b5b6000611df785828601611c9d565b9250506020611e0885828601611a24565b9150509250929050565b611e1b81611c7c565b82525050565b6000606082019050611e366000830186611e12565b611e436020830185611e12565b611e506040830184611e12565b949350505050565b611e61816119fb565b82525050565b6000602082019050611e7c6000830184611e58565b92915050565b600082825260208201905092915050565b7f46756e6374696f6e206d7573742062652063616c6c6564207468726f7567682060008201527f64656c656761746563616c6c0000000000000000000000000000000000000000602082015250565b6000611eef602c83611e82565b9150611efa82611e93565b604082019050919050565b60006020820190508181036000830152611f1e81611ee2565b9050919050565b7f46756e6374696f6e206d7573742062652063616c6c6564207468726f7567682060008201527f6163746976652070726f78790000000000000000000000000000000000000000602082015250565b6000611f81602c83611e82565b9150611f8c82611f25565b604082019050919050565b60006020820190508181036000830152611fb081611f74565b9050919050565b7f496e697469616c697a61626c653a20636f6e747261637420697320616c72656160008201527f647920696e697469616c697a6564000000000000000000000000000000000000602082015250565b6000612013602e83611e82565b915061201e82611fb7565b604082019050919050565b6000602082019050818103600083015261204281612006565b9050919050565b6000819050919050565b600060ff82169050919050565b6000819050919050565b600061208561208061207b84612049565b612060565b612053565b9050919050565b6120958161206a565b82525050565b60006020820190506120b0600083018461208c565b92915050565b7f555550535570677261646561626c653a206d757374206e6f742062652063616c60008201527f6c6564207468726f7567682064656c656761746563616c6c0000000000000000602082015250565b6000612112603883611e82565b915061211d826120b6565b604082019050919050565b6000602082019050818103600083015261214181612105565b9050919050565b7f4e487b7100000000000000000000000000000000000000000000000000000000600052603260045260246000fd5b600060408201905061218c6000830185611e58565b6121996020830184611e12565b9392505050565b60008115159050919050565b6121b5816121a0565b81146121c057600080fd5b50565b6000815190506121d2816121ac565b92915050565b6000602082840312156121ee576121ed6119d1565b5b60006121fc848285016121c3565b91505092915050565b600081519050919050565b600082825260208201905092915050565b6000819050602082019050919050565b61223a816119fb565b82525050565b600061224c8383612231565b60208301905092915050565b6000602082019050919050565b600061227082612205565b61227a8185612210565b935061228583612221565b8060005b838110156122b657815161229d8882612240565b97506122a883612258565b925050600181019050612289565b5085935050505092915050565b600060a0820190506122d86000830188611e12565b6122e56020830187611e12565b81810360408301526122f78186612265565b90506123066060830185611e58565b6123136080830184611e12565b9695505050505050565b600067ffffffffffffffff82111561233857612337611ac1565b5b602082029050602081019050919050565b600080fd5b60008151905061235d81611c86565b92915050565b60006123766123718461231d565b611b21565b9050808382526020820190506020840283018581111561239957612398612349565b5b835b818110156123c257806123ae888261234e565b84526020840193505060208101905061239b565b5050509392505050565b600082601f8301126123e1576123e0611aa6565b5b81516123f1848260208601612363565b91505092915050565b6000602082840312156124105761240f6119d1565b5b600082015167ffffffffffffffff81111561242e5761242d6119d6565b5b61243a848285016123cc565b91505092915050565b7f4e487b7100000000000000000000000000000000000000000000000000000000600052601160045260246000fd5b600061247d82611c7c565b915061248883611c7c565b92508282101561249b5761249a612443565b5b828203905092915050565b60006124b182611c7c565b91506124bc83611c7c565b9250817fffffffffffffffffffffffffffffffffffffffffffffffffffffffffffffffff04831182151516156124f5576124f4612443565b5b828202905092915050565b600061251b61251661251184612049565b612060565b611c7c565b9050919050565b61252b81612500565b82525050565b600061010082019050612547600083018b611e58565b612554602083018a611e58565b6125616040830189611e12565b61256e6060830188611e12565b61257b6080830187612522565b61258860a0830186612522565b61259560c0830185611e58565b6125a260e0830184611e12565b9998505050505050505050565b6000806000606084860312156125c8576125c76119d1565b5b60006125d68682870161234e565b93505060206125e78682870161234e565b92505060406125f88682870161234e565b9150509250925092565b60006040820190506126176000830185611e58565b6126246020830184611e58565b9392505050565b60008151905061263a81611a0d565b92915050565b600060208284031215612656576126556119d1565b5b60006126648482850161262b565b91505092915050565b61267681611c48565b811461268157600080fd5b50565b6000815190506126938161266d565b92915050565b6000602082840312156126af576126ae6119d1565b5b60006126bd84828501612684565b91505092915050565b7f45524331393637557067726164653a206e657720696d706c656d656e7461746960008201527f6f6e206973206e6f742055555053000000000000000000000000000000000000602082015250565b6000612722602e83611e82565b915061272d826126c6565b604082019050919050565b6000602082019050818103600083015261275181612715565b9050919050565b7f45524331393637557067726164653a20756e737570706f727465642070726f7860008201527f6961626c65555549440000000000000000000000000000000000000000000000602082015250565b60006127b4602983611e82565b91506127bf82612758565b604082019050919050565b600060208201905081810360008301526127e3816127a7565b9050919050565b7f496e697469616c697a61626c653a20636f6e7472616374206973206e6f74206960008201527f6e697469616c697a696e67000000000000000000000000000000000000000000602082015250565b6000612846602b83611e82565b9150612851826127ea565b604082019050919050565b6000602082019050818103600083015261287581612839565b9050919050565b7f455243313936373a206e657720696d706c656d656e746174696f6e206973206e60008201527f6f74206120636f6e747261637400000000000000000000000000000000000000602082015250565b60006128d8602d83611e82565b91506128e38261287c565b604082019050919050565b60006020820190508181036000830152612907816128cb565b9050919050565b7f416464726573733a2064656c65676174652063616c6c20746f206e6f6e2d636f60008201527f6e74726163740000000000000000000000000000000000000000000000000000602082015250565b600061296a602683611e82565b91506129758261290e565b604082019050919050565b600060208201905081810360008301526129998161295d565b9050919050565b600081519050919050565b600081905092915050565b60005b838110156129d45780820151818401526020810190506129b9565b838111156129e3576000848401525b50505050565b60006129f4826129a0565b6129fe81856129ab565b9350612a0e8185602086016129b6565b80840191505092915050565b6000612a2682846129e9565b915081905092915050565b600081519050919050565b6000612a4782612a31565b612a518185611e82565b9350612a618185602086016129b6565b612a6a81611ab0565b840191505092915050565b60006020820190508181036000830152612a8f8184612a3c565b90509291505056fe416464726573733a206c6f772d6c6576656c2064656c65676174652063616c6c206661696c6564a26469706673582212204f83733d2114fdaafcb6a857dac1250444ee55a0b2ec3b8bb2ba3cd6862d4cc664736f6c63430008090033",
  "linkReferences": {},
  "deployedLinkReferences": {}
}