{
  "_format": "hh-sol-artifact-1",
  "contractName": "MetropolitanToken",
  "sourceName": "contracts/MetropolitanToken.sol",
  "abi": [
    {
      "inputs": [],
      "stateMutability": "nonpayable",
      "type": "constructor"
    },
    {
      "anonymous": false,
      "inputs": [
        {
          "indexed": false,
          "internalType": "address",
          "name": "previousAdmin",
          "type": "address"
        },
        {
          "indexed": false,
          "internalType": "address",
          "name": "newAdmin",
          "type": "address"
        }
      ],
      "name": "AdminChanged",
      "type": "event"
    },
    {
      "anonymous": false,
      "inputs": [
        {
          "indexed": true,
          "internalType": "address",
          "name": "owner",
          "type": "address"
        },
        {
          "indexed": true,
          "internalType": "address",
          "name": "spender",
          "type": "address"
        },
        {
          "indexed": false,
          "internalType": "uint256",
          "name": "value",
          "type": "uint256"
        }
      ],
      "name": "Approval",
      "type": "event"
    },
    {
      "anonymous": false,
      "inputs": [
        {
          "indexed": true,
          "internalType": "address",
          "name": "beacon",
          "type": "address"
        }
      ],
      "name": "BeaconUpgraded",
      "type": "event"
    },
    {
      "anonymous": false,
      "inputs": [
        {
          "indexed": false,
          "internalType": "uint8",
          "name": "version",
          "type": "uint8"
        }
      ],
      "name": "Initialized",
      "type": "event"
    },
    {
      "anonymous": false,
      "inputs": [
        {
          "indexed": true,
          "internalType": "address",
          "name": "previousOwner",
          "type": "address"
        },
        {
          "indexed": true,
          "internalType": "address",
          "name": "newOwner",
          "type": "address"
        }
      ],
      "name": "OwnershipTransferred",
      "type": "event"
    },
    {
      "anonymous": false,
      "inputs": [
        {
          "indexed": true,
          "internalType": "bytes32",
          "name": "role",
          "type": "bytes32"
        },
        {
          "indexed": true,
          "internalType": "bytes32",
          "name": "previousAdminRole",
          "type": "bytes32"
        },
        {
          "indexed": true,
          "internalType": "bytes32",
          "name": "newAdminRole",
          "type": "bytes32"
        }
      ],
      "name": "RoleAdminChanged",
      "type": "event"
    },
    {
      "anonymous": false,
      "inputs": [
        {
          "indexed": true,
          "internalType": "bytes32",
          "name": "role",
          "type": "bytes32"
        },
        {
          "indexed": true,
          "internalType": "address",
          "name": "account",
          "type": "address"
        },
        {
          "indexed": true,
          "internalType": "address",
          "name": "sender",
          "type": "address"
        }
      ],
      "name": "RoleGranted",
      "type": "event"
    },
    {
      "anonymous": false,
      "inputs": [
        {
          "indexed": true,
          "internalType": "bytes32",
          "name": "role",
          "type": "bytes32"
        },
        {
          "indexed": true,
          "internalType": "address",
          "name": "account",
          "type": "address"
        },
        {
          "indexed": true,
          "internalType": "address",
          "name": "sender",
          "type": "address"
        }
      ],
      "name": "RoleRevoked",
      "type": "event"
    },
    {
      "anonymous": false,
      "inputs": [
        {
          "indexed": true,
          "internalType": "address",
          "name": "from",
          "type": "address"
        },
        {
          "indexed": true,
          "internalType": "address",
          "name": "to",
          "type": "address"
        },
        {
          "indexed": false,
          "internalType": "uint256",
          "name": "value",
          "type": "uint256"
        }
      ],
      "name": "Transfer",
      "type": "event"
    },
    {
      "anonymous": false,
      "inputs": [
        {
          "indexed": true,
          "internalType": "address",
          "name": "implementation",
          "type": "address"
        }
      ],
      "name": "Upgraded",
      "type": "event"
    },
    {
      "inputs": [],
      "name": "DEFAULT_ADMIN_ROLE",
      "outputs": [
        {
          "internalType": "bytes32",
          "name": "",
          "type": "bytes32"
        }
      ],
      "stateMutability": "view",
      "type": "function"
    },
    {
      "inputs": [],
      "name": "MINTER_ROLE",
      "outputs": [
        {
          "internalType": "bytes32",
          "name": "",
          "type": "bytes32"
        }
      ],
      "stateMutability": "view",
      "type": "function"
    },
    {
      "inputs": [],
      "name": "PAUSER_ROLE",
      "outputs": [
        {
          "internalType": "bytes32",
          "name": "",
          "type": "bytes32"
        }
      ],
      "stateMutability": "view",
      "type": "function"
    },
    {
      "inputs": [
        {
          "internalType": "address",
          "name": "owner",
          "type": "address"
        },
        {
          "internalType": "address",
          "name": "spender",
          "type": "address"
        }
      ],
      "name": "allowance",
      "outputs": [
        {
          "internalType": "uint256",
          "name": "",
          "type": "uint256"
        }
      ],
      "stateMutability": "view",
      "type": "function"
    },
    {
      "inputs": [
        {
          "internalType": "address",
          "name": "spender",
          "type": "address"
        },
        {
          "internalType": "uint256",
          "name": "amount",
          "type": "uint256"
        }
      ],
      "name": "approve",
      "outputs": [
        {
          "internalType": "bool",
          "name": "",
          "type": "bool"
        }
      ],
      "stateMutability": "nonpayable",
      "type": "function"
    },
    {
      "inputs": [
        {
          "internalType": "address",
          "name": "account",
          "type": "address"
        }
      ],
      "name": "balanceOf",
      "outputs": [
        {
          "internalType": "uint256",
          "name": "",
          "type": "uint256"
        }
      ],
      "stateMutability": "view",
      "type": "function"
    },
    {
      "inputs": [],
      "name": "decimals",
      "outputs": [
        {
          "internalType": "uint8",
          "name": "",
          "type": "uint8"
        }
      ],
      "stateMutability": "view",
      "type": "function"
    },
    {
      "inputs": [
        {
          "internalType": "address",
          "name": "spender",
          "type": "address"
        },
        {
          "internalType": "uint256",
          "name": "subtractedValue",
          "type": "uint256"
        }
      ],
      "name": "decreaseAllowance",
      "outputs": [
        {
          "internalType": "bool",
          "name": "",
          "type": "bool"
        }
      ],
      "stateMutability": "nonpayable",
      "type": "function"
    },
    {
      "inputs": [
        {
          "internalType": "bytes32",
          "name": "role",
          "type": "bytes32"
        }
      ],
      "name": "getRoleAdmin",
      "outputs": [
        {
          "internalType": "bytes32",
          "name": "",
          "type": "bytes32"
        }
      ],
      "stateMutability": "view",
      "type": "function"
    },
    {
      "inputs": [
        {
          "internalType": "bytes32",
          "name": "role",
          "type": "bytes32"
        },
        {
          "internalType": "address",
          "name": "account",
          "type": "address"
        }
      ],
      "name": "grantRole",
      "outputs": [],
      "stateMutability": "nonpayable",
      "type": "function"
    },
    {
      "inputs": [
        {
          "internalType": "bytes32",
          "name": "role",
          "type": "bytes32"
        },
        {
          "internalType": "address",
          "name": "account",
          "type": "address"
        }
      ],
      "name": "hasRole",
      "outputs": [
        {
          "internalType": "bool",
          "name": "",
          "type": "bool"
        }
      ],
      "stateMutability": "view",
      "type": "function"
    },
    {
      "inputs": [
        {
          "internalType": "address",
          "name": "spender",
          "type": "address"
        },
        {
          "internalType": "uint256",
          "name": "addedValue",
          "type": "uint256"
        }
      ],
      "name": "increaseAllowance",
      "outputs": [
        {
          "internalType": "bool",
          "name": "",
          "type": "bool"
        }
      ],
      "stateMutability": "nonpayable",
      "type": "function"
    },
    {
      "inputs": [],
      "name": "initialize",
      "outputs": [],
      "stateMutability": "nonpayable",
      "type": "function"
    },
    {
      "inputs": [
        {
          "internalType": "address",
          "name": "to",
          "type": "address"
        },
        {
          "internalType": "uint256",
          "name": "amount",
          "type": "uint256"
        }
      ],
      "name": "mint",
      "outputs": [],
      "stateMutability": "nonpayable",
      "type": "function"
    },
    {
      "inputs": [],
      "name": "name",
      "outputs": [
        {
          "internalType": "string",
          "name": "",
          "type": "string"
        }
      ],
      "stateMutability": "view",
      "type": "function"
    },
    {
      "inputs": [],
      "name": "owner",
      "outputs": [
        {
          "internalType": "address",
          "name": "",
          "type": "address"
        }
      ],
      "stateMutability": "view",
      "type": "function"
    },
    {
      "inputs": [],
      "name": "proxiableUUID",
      "outputs": [
        {
          "internalType": "bytes32",
          "name": "",
          "type": "bytes32"
        }
      ],
      "stateMutability": "view",
      "type": "function"
    },
    {
      "inputs": [],
      "name": "renounceOwnership",
      "outputs": [],
      "stateMutability": "nonpayable",
      "type": "function"
    },
    {
      "inputs": [
        {
          "internalType": "bytes32",
          "name": "role",
          "type": "bytes32"
        },
        {
          "internalType": "address",
          "name": "account",
          "type": "address"
        }
      ],
      "name": "renounceRole",
      "outputs": [],
      "stateMutability": "nonpayable",
      "type": "function"
    },
    {
      "inputs": [
        {
          "internalType": "bytes32",
          "name": "role",
          "type": "bytes32"
        },
        {
          "internalType": "address",
          "name": "account",
          "type": "address"
        }
      ],
      "name": "revokeRole",
      "outputs": [],
      "stateMutability": "nonpayable",
      "type": "function"
    },
    {
      "inputs": [
        {
          "internalType": "bytes4",
          "name": "interfaceId",
          "type": "bytes4"
        }
      ],
      "name": "supportsInterface",
      "outputs": [
        {
          "internalType": "bool",
          "name": "",
          "type": "bool"
        }
      ],
      "stateMutability": "view",
      "type": "function"
    },
    {
      "inputs": [],
      "name": "symbol",
      "outputs": [
        {
          "internalType": "string",
          "name": "",
          "type": "string"
        }
      ],
      "stateMutability": "view",
      "type": "function"
    },
    {
      "inputs": [],
      "name": "totalSupply",
      "outputs": [
        {
          "internalType": "uint256",
          "name": "",
          "type": "uint256"
        }
      ],
      "stateMutability": "view",
      "type": "function"
    },
    {
      "inputs": [
        {
          "internalType": "address",
          "name": "to",
          "type": "address"
        },
        {
          "internalType": "uint256",
          "name": "amount",
          "type": "uint256"
        }
      ],
      "name": "transfer",
      "outputs": [
        {
          "internalType": "bool",
          "name": "",
          "type": "bool"
        }
      ],
      "stateMutability": "nonpayable",
      "type": "function"
    },
    {
      "inputs": [
        {
          "internalType": "address",
          "name": "from",
          "type": "address"
        },
        {
          "internalType": "address",
          "name": "to",
          "type": "address"
        },
        {
          "internalType": "uint256",
          "name": "amount",
          "type": "uint256"
        }
      ],
      "name": "transferFrom",
      "outputs": [
        {
          "internalType": "bool",
          "name": "",
          "type": "bool"
        }
      ],
      "stateMutability": "nonpayable",
      "type": "function"
    },
    {
      "inputs": [
        {
          "internalType": "address",
          "name": "newOwner",
          "type": "address"
        }
      ],
      "name": "transferOwnership",
      "outputs": [],
      "stateMutability": "nonpayable",
      "type": "function"
    },
    {
      "inputs": [
        {
          "internalType": "address",
          "name": "newImplementation",
          "type": "address"
        }
      ],
      "name": "upgradeTo",
      "outputs": [],
      "stateMutability": "nonpayable",
      "type": "function"
    },
    {
      "inputs": [
        {
          "internalType": "address",
          "name": "newImplementation",
          "type": "address"
        },
        {
          "internalType": "bytes",
          "name": "data",
          "type": "bytes"
        }
      ],
      "name": "upgradeToAndCall",
      "outputs": [],
      "stateMutability": "payable",
      "type": "function"
    }
  ],
  "bytecode": "0x60a06040523073ffffffffffffffffffffffffffffffffffffffff1660809073ffffffffffffffffffffffffffffffffffffffff168152503480156200004457600080fd5b50620000556200005b60201b60201c565b62000206565b600060019054906101000a900460ff1615620000ae576040517f08c379a0000000000000000000000000000000000000000000000000000000008152600401620000a590620001a9565b60405180910390fd5b60ff801660008054906101000a900460ff1660ff161015620001205760ff6000806101000a81548160ff021916908360ff1602179055507f7f26b83ff96e1f2b6a682f133852f6798a09c465da95921460cefb384740249860ff604051620001179190620001e9565b60405180910390a15b565b600082825260208201905092915050565b7f496e697469616c697a61626c653a20636f6e747261637420697320696e69746960008201527f616c697a696e6700000000000000000000000000000000000000000000000000602082015250565b60006200019160278362000122565b91506200019e8262000133565b604082019050919050565b60006020820190508181036000830152620001c48162000182565b9050919050565b600060ff82169050919050565b620001e381620001cb565b82525050565b6000602082019050620002006000830184620001d8565b92915050565b608051613d846200023e60003960008181610919015281816109a801528181610b1201528181610ba10152610c510152613d846000f3fe6080604052600436106101b75760003560e01c806370a08231116100ec578063a457c2d71161008a578063d547741f11610064578063d547741f14610627578063dd62ed3e14610650578063e63ab1e91461068d578063f2fde38b146106b8576101b7565b8063a457c2d714610582578063a9059cbb146105bf578063d5391393146105fc576101b7565b80638da5cb5b116100c65780638da5cb5b146104c457806391d14854146104ef57806395d89b411461052c578063a217fddf14610557576101b7565b806370a0823114610459578063715018a6146104965780638129fc1c146104ad576101b7565b8063313ce56711610159578063395093511161013357806339509351146103ac57806340c10f19146103e95780634f1ef2861461041257806352d1902d1461042e576101b7565b8063313ce5671461032f57806336568abe1461035a5780633659cfe614610383576101b7565b806318160ddd1161019557806318160ddd1461026157806323b872dd1461028c578063248a9ca3146102c95780632f2ff15d14610306576101b7565b806301ffc9a7146101bc57806306fdde03146101f9578063095ea7b314610224575b600080fd5b3480156101c857600080fd5b506101e360048036038101906101de9190612705565b6106e1565b6040516101f0919061274d565b60405180910390f35b34801561020557600080fd5b5061020e61075b565b60405161021b9190612801565b60405180910390f35b34801561023057600080fd5b5061024b600480360381019061024691906128b7565b6107ed565b604051610258919061274d565b60405180910390f35b34801561026d57600080fd5b50610276610810565b6040516102839190612906565b60405180910390f35b34801561029857600080fd5b506102b360048036038101906102ae9190612921565b61081a565b6040516102c0919061274d565b60405180910390f35b3480156102d557600080fd5b506102f060048036038101906102eb91906129aa565b610849565b6040516102fd91906129e6565b60405180910390f35b34801561031257600080fd5b5061032d60048036038101906103289190612a01565b61086a565b005b34801561033b57600080fd5b5061034461088b565b6040516103519190612a5d565b60405180910390f35b34801561036657600080fd5b50610381600480360381019061037c9190612a01565b610894565b005b34801561038f57600080fd5b506103aa60048036038101906103a59190612a78565b610917565b005b3480156103b857600080fd5b506103d360048036038101906103ce91906128b7565b610aa0565b6040516103e0919061274d565b60405180910390f35b3480156103f557600080fd5b50610410600480360381019061040b91906128b7565b610ad7565b005b61042c60048036038101906104279190612bda565b610b10565b005b34801561043a57600080fd5b50610443610c4d565b60405161045091906129e6565b60405180910390f35b34801561046557600080fd5b50610480600480360381019061047b9190612a78565b610d06565b60405161048d9190612906565b60405180910390f35b3480156104a257600080fd5b506104ab610d4f565b005b3480156104b957600080fd5b506104c2610d63565b005b3480156104d057600080fd5b506104d9610f7f565b6040516104e69190612c45565b60405180910390f35b3480156104fb57600080fd5b5061051660048036038101906105119190612a01565b610fa9565b604051610523919061274d565b60405180910390f35b34801561053857600080fd5b50610541611015565b60405161054e9190612801565b60405180910390f35b34801561056357600080fd5b5061056c6110a7565b60405161057991906129e6565b60405180910390f35b34801561058e57600080fd5b506105a960048036038101906105a491906128b7565b6110ae565b6040516105b6919061274d565b60405180910390f35b3480156105cb57600080fd5b506105e660048036038101906105e191906128b7565b611125565b6040516105f3919061274d565b60405180910390f35b34801561060857600080fd5b50610611611148565b60405161061e91906129e6565b60405180910390f35b34801561063357600080fd5b5061064e60048036038101906106499190612a01565b61116c565b005b34801561065c57600080fd5b5061067760048036038101906106729190612c60565b61118d565b6040516106849190612906565b60405180910390f35b34801561069957600080fd5b506106a2611214565b6040516106af91906129e6565b60405180910390f35b3480156106c457600080fd5b506106df60048036038101906106da9190612a78565b611238565b005b60007f7965db0b000000000000000000000000000000000000000000000000000000007bffffffffffffffffffffffffffffffffffffffffffffffffffffffff1916827bffffffffffffffffffffffffffffffffffffffffffffffffffffffff191614806107545750610753826112bc565b5b9050919050565b60606036805461076a90612ccf565b80601f016020809104026020016040519081016040528092919081815260200182805461079690612ccf565b80156107e35780601f106107b8576101008083540402835291602001916107e3565b820191906000526020600020905b8154815290600101906020018083116107c657829003601f168201915b5050505050905090565b6000806107f8611326565b905061080581858561132e565b600191505092915050565b6000603554905090565b600080610825611326565b90506108328582856114f9565b61083d858585611585565b60019150509392505050565b600061012d6000838152602001908152602001600020600101549050919050565b61087382610849565b61087c81611800565b6108868383611814565b505050565b60006012905090565b61089c611326565b73ffffffffffffffffffffffffffffffffffffffff168173ffffffffffffffffffffffffffffffffffffffff1614610909576040517f08c379a000000000000000000000000000000000000000000000000000000000815260040161090090612d73565b60405180910390fd5b61091382826118f6565b5050565b7f000000000000000000000000000000000000000000000000000000000000000073ffffffffffffffffffffffffffffffffffffffff163073ffffffffffffffffffffffffffffffffffffffff1614156109a6576040517f08c379a000000000000000000000000000000000000000000000000000000000815260040161099d90612e05565b60405180910390fd5b7f000000000000000000000000000000000000000000000000000000000000000073ffffffffffffffffffffffffffffffffffffffff166109e56119d9565b73ffffffffffffffffffffffffffffffffffffffff1614610a3b576040517f08c379a0000000000000000000000000000000000000000000000000000000008152600401610a3290612e97565b60405180910390fd5b610a4481611a30565b610a9d81600067ffffffffffffffff811115610a6357610a62612aaf565b5b6040519080825280601f01601f191660200182016040528015610a955781602001600182028036833780820191505090505b506000611a3b565b50565b600080610aab611326565b9050610acc818585610abd858961118d565b610ac79190612ee6565b61132e565b600191505092915050565b7f9f2df0fed2c77648de5860a4cc508cd0818c85b8b8a1ab4ceeef8d981c8956a6610b0181611800565b610b0b8383611bb8565b505050565b7f000000000000000000000000000000000000000000000000000000000000000073ffffffffffffffffffffffffffffffffffffffff163073ffffffffffffffffffffffffffffffffffffffff161415610b9f576040517f08c379a0000000000000000000000000000000000000000000000000000000008152600401610b9690612e05565b60405180910390fd5b7f000000000000000000000000000000000000000000000000000000000000000073ffffffffffffffffffffffffffffffffffffffff16610bde6119d9565b73ffffffffffffffffffffffffffffffffffffffff1614610c34576040517f08c379a0000000000000000000000000000000000000000000000000000000008152600401610c2b90612e97565b60405180910390fd5b610c3d82611a30565b610c4982826001611a3b565b5050565b60007f000000000000000000000000000000000000000000000000000000000000000073ffffffffffffffffffffffffffffffffffffffff163073ffffffffffffffffffffffffffffffffffffffff1614610cdd576040517f08c379a0000000000000000000000000000000000000000000000000000000008152600401610cd490612fae565b60405180910390fd5b7f360894a13ba1a3210667c828492db98dca3e2076cc3735a920a3ca505d382bbc60001b905090565b6000603360008373ffffffffffffffffffffffffffffffffffffffff1673ffffffffffffffffffffffffffffffffffffffff168152602001908152602001600020549050919050565b610d57611d10565b610d616000611d8e565b565b60008060019054906101000a900460ff16159050808015610d945750600160008054906101000a900460ff1660ff16105b80610dc15750610da330611e54565b158015610dc05750600160008054906101000a900460ff1660ff16145b5b610e00576040517f08c379a0000000000000000000000000000000000000000000000000000000008152600401610df790613040565b60405180910390fd5b60016000806101000a81548160ff021916908360ff1602179055508015610e3d576001600060016101000a81548160ff0219169083151502179055505b610eb16040518060400160405280601181526020017f4d6574726f706f6c6974616e546f6b656e0000000000000000000000000000008152506040518060400160405280600581526020017f4d5450544b000000000000000000000000000000000000000000000000000000815250611e77565b610eb9611ed4565b610ec1611f2d565b610ece6000801b33611814565b610ef87f9f2df0fed2c77648de5860a4cc508cd0818c85b8b8a1ab4ceeef8d981c8956a633611814565b610f2333610f0461088b565b600a610f109190613193565b620186a0610f1e91906131de565b611bb8565b8015610f7c5760008060016101000a81548160ff0219169083151502179055507f7f26b83ff96e1f2b6a682f133852f6798a09c465da95921460cefb38474024986001604051610f73919061327d565b60405180910390a15b50565b6000606560009054906101000a900473ffffffffffffffffffffffffffffffffffffffff16905090565b600061012d600084815260200190815260200160002060000160008373ffffffffffffffffffffffffffffffffffffffff1673ffffffffffffffffffffffffffffffffffffffff16815260200190815260200160002060009054906101000a900460ff16905092915050565b60606037805461102490612ccf565b80601f016020809104026020016040519081016040528092919081815260200182805461105090612ccf565b801561109d5780601f106110725761010080835404028352916020019161109d565b820191906000526020600020905b81548152906001019060200180831161108057829003601f168201915b5050505050905090565b6000801b81565b6000806110b9611326565b905060006110c7828661118d565b90508381101561110c576040517f08c379a00000000000000000000000000000000000000000000000000000000081526004016111039061330a565b60405180910390fd5b611119828686840361132e565b60019250505092915050565b600080611130611326565b905061113d818585611585565b600191505092915050565b7f9f2df0fed2c77648de5860a4cc508cd0818c85b8b8a1ab4ceeef8d981c8956a681565b61117582610849565b61117e81611800565b61118883836118f6565b505050565b6000603460008473ffffffffffffffffffffffffffffffffffffffff1673ffffffffffffffffffffffffffffffffffffffff16815260200190815260200160002060008373ffffffffffffffffffffffffffffffffffffffff1673ffffffffffffffffffffffffffffffffffffffff16815260200190815260200160002054905092915050565b7f65d7a28e3265b37a6474929f336521b332c1681b933f6cb9f3376673440d862a81565b611240611d10565b600073ffffffffffffffffffffffffffffffffffffffff168173ffffffffffffffffffffffffffffffffffffffff1614156112b0576040517f08c379a00000000000000000000000000000000000000000000000000000000081526004016112a79061339c565b60405180910390fd5b6112b981611d8e565b50565b60007f01ffc9a7000000000000000000000000000000000000000000000000000000007bffffffffffffffffffffffffffffffffffffffffffffffffffffffff1916827bffffffffffffffffffffffffffffffffffffffffffffffffffffffff1916149050919050565b600033905090565b600073ffffffffffffffffffffffffffffffffffffffff168373ffffffffffffffffffffffffffffffffffffffff16141561139e576040517f08c379a00000000000000000000000000000000000000000000000000000000081526004016113959061342e565b60405180910390fd5b600073ffffffffffffffffffffffffffffffffffffffff168273ffffffffffffffffffffffffffffffffffffffff16141561140e576040517f08c379a0000000000000000000000000000000000000000000000000000000008152600401611405906134c0565b60405180910390fd5b80603460008573ffffffffffffffffffffffffffffffffffffffff1673ffffffffffffffffffffffffffffffffffffffff16815260200190815260200160002060008473ffffffffffffffffffffffffffffffffffffffff1673ffffffffffffffffffffffffffffffffffffffff168152602001908152602001600020819055508173ffffffffffffffffffffffffffffffffffffffff168373ffffffffffffffffffffffffffffffffffffffff167f8c5be1e5ebec7d5bd14f71427d1e84f3dd0314c0f7b2291e5b200ac8c7c3b925836040516114ec9190612906565b60405180910390a3505050565b6000611505848461118d565b90507fffffffffffffffffffffffffffffffffffffffffffffffffffffffffffffffff811461157f5781811015611571576040517f08c379a00000000000000000000000000000000000000000000000000000000081526004016115689061352c565b60405180910390fd5b61157e848484840361132e565b5b50505050565b600073ffffffffffffffffffffffffffffffffffffffff168373ffffffffffffffffffffffffffffffffffffffff1614156115f5576040517f08c379a00000000000000000000000000000000000000000000000000000000081526004016115ec906135be565b60405180910390fd5b600073ffffffffffffffffffffffffffffffffffffffff168273ffffffffffffffffffffffffffffffffffffffff161415611665576040517f08c379a000000000000000000000000000000000000000000000000000000000815260040161165c90613650565b60405180910390fd5b611670838383611f7e565b6000603360008573ffffffffffffffffffffffffffffffffffffffff1673ffffffffffffffffffffffffffffffffffffffff168152602001908152602001600020549050818110156116f7576040517f08c379a00000000000000000000000000000000000000000000000000000000081526004016116ee906136e2565b60405180910390fd5b818103603360008673ffffffffffffffffffffffffffffffffffffffff1673ffffffffffffffffffffffffffffffffffffffff1681526020019081526020016000208190555081603360008573ffffffffffffffffffffffffffffffffffffffff1673ffffffffffffffffffffffffffffffffffffffff168152602001908152602001600020600082825401925050819055508273ffffffffffffffffffffffffffffffffffffffff168473ffffffffffffffffffffffffffffffffffffffff167fddf252ad1be2c89b69c2b068fc378daa952ba7f163c4a11628f55a4df523b3ef846040516117e79190612906565b60405180910390a36117fa848484611f83565b50505050565b6118118161180c611326565b611f88565b50565b61181e8282610fa9565b6118f257600161012d600084815260200190815260200160002060000160008373ffffffffffffffffffffffffffffffffffffffff1673ffffffffffffffffffffffffffffffffffffffff16815260200190815260200160002060006101000a81548160ff021916908315150217905550611897611326565b73ffffffffffffffffffffffffffffffffffffffff168173ffffffffffffffffffffffffffffffffffffffff16837f2f8788117e7eff1d82e926ec794901d17c78024a50270940304540a733656f0d60405160405180910390a45b5050565b6119008282610fa9565b156119d557600061012d600084815260200190815260200160002060000160008373ffffffffffffffffffffffffffffffffffffffff1673ffffffffffffffffffffffffffffffffffffffff16815260200190815260200160002060006101000a81548160ff02191690831515021790555061197a611326565b73ffffffffffffffffffffffffffffffffffffffff168173ffffffffffffffffffffffffffffffffffffffff16837ff6391f5c32d9c69d2a47ea670b442974b53935d1edc7fd64eb21e047a839171b60405160405180910390a45b5050565b6000611a077f360894a13ba1a3210667c828492db98dca3e2076cc3735a920a3ca505d382bbc60001b61200d565b60000160009054906101000a900473ffffffffffffffffffffffffffffffffffffffff16905090565b611a38611d10565b50565b611a677f4910fdfa16fed3260ed0e7147f7cc6da11a60208b5b9406d12a635614ffd914360001b612017565b60000160009054906101000a900460ff1615611a8b57611a8683612021565b611bb3565b8273ffffffffffffffffffffffffffffffffffffffff166352d1902d6040518163ffffffff1660e01b815260040160206040518083038186803b158015611ad157600080fd5b505afa925050508015611b0257506040513d601f19601f82011682018060405250810190611aff9190613717565b60015b611b41576040517f08c379a0000000000000000000000000000000000000000000000000000000008152600401611b38906137b6565b60405180910390fd5b7f360894a13ba1a3210667c828492db98dca3e2076cc3735a920a3ca505d382bbc60001b8114611ba6576040517f08c379a0000000000000000000000000000000000000000000000000000000008152600401611b9d90613848565b60405180910390fd5b50611bb28383836120da565b5b505050565b600073ffffffffffffffffffffffffffffffffffffffff168273ffffffffffffffffffffffffffffffffffffffff161415611c28576040517f08c379a0000000000000000000000000000000000000000000000000000000008152600401611c1f906138b4565b60405180910390fd5b611c3460008383611f7e565b8060356000828254611c469190612ee6565b9250508190555080603360008473ffffffffffffffffffffffffffffffffffffffff1673ffffffffffffffffffffffffffffffffffffffff168152602001908152602001600020600082825401925050819055508173ffffffffffffffffffffffffffffffffffffffff16600073ffffffffffffffffffffffffffffffffffffffff167fddf252ad1be2c89b69c2b068fc378daa952ba7f163c4a11628f55a4df523b3ef83604051611cf89190612906565b60405180910390a3611d0c60008383611f83565b5050565b611d18611326565b73ffffffffffffffffffffffffffffffffffffffff16611d36610f7f565b73ffffffffffffffffffffffffffffffffffffffff1614611d8c576040517f08c379a0000000000000000000000000000000000000000000000000000000008152600401611d8390613920565b60405180910390fd5b565b6000606560009054906101000a900473ffffffffffffffffffffffffffffffffffffffff16905081606560006101000a81548173ffffffffffffffffffffffffffffffffffffffff021916908373ffffffffffffffffffffffffffffffffffffffff1602179055508173ffffffffffffffffffffffffffffffffffffffff168173ffffffffffffffffffffffffffffffffffffffff167f8be0079c531659141344cd1fd0a4f28419497f9722a3daafe3b4186f6b6457e060405160405180910390a35050565b6000808273ffffffffffffffffffffffffffffffffffffffff163b119050919050565b600060019054906101000a900460ff16611ec6576040517f08c379a0000000000000000000000000000000000000000000000000000000008152600401611ebd906139b2565b60405180910390fd5b611ed08282612106565b5050565b600060019054906101000a900460ff16611f23576040517f08c379a0000000000000000000000000000000000000000000000000000000008152600401611f1a906139b2565b60405180910390fd5b611f2b612187565b565b600060019054906101000a900460ff16611f7c576040517f08c379a0000000000000000000000000000000000000000000000000000000008152600401611f73906139b2565b60405180910390fd5b565b505050565b505050565b611f928282610fa9565b61200957611f9f816121e8565b611fad8360001c6020612215565b604051602001611fbe929190613aa6565b6040516020818303038152906040526040517f08c379a00000000000000000000000000000000000000000000000000000000081526004016120009190612801565b60405180910390fd5b5050565b6000819050919050565b6000819050919050565b61202a81611e54565b612069576040517f08c379a000000000000000000000000000000000000000000000000000000000815260040161206090613b52565b60405180910390fd5b806120967f360894a13ba1a3210667c828492db98dca3e2076cc3735a920a3ca505d382bbc60001b61200d565b60000160006101000a81548173ffffffffffffffffffffffffffffffffffffffff021916908373ffffffffffffffffffffffffffffffffffffffff16021790555050565b6120e383612451565b6000825111806120f05750805b15612101576120ff83836124a0565b505b505050565b600060019054906101000a900460ff16612155576040517f08c379a000000000000000000000000000000000000000000000000000000000815260040161214c906139b2565b60405180910390fd5b816036908051906020019061216b9291906125f6565b5080603790805190602001906121829291906125f6565b505050565b600060019054906101000a900460ff166121d6576040517f08c379a00000000000000000000000000000000000000000000000000000000081526004016121cd906139b2565b60405180910390fd5b6121e66121e1611326565b611d8e565b565b606061220e8273ffffffffffffffffffffffffffffffffffffffff16601460ff16612215565b9050919050565b60606000600283600261222891906131de565b6122329190612ee6565b67ffffffffffffffff81111561224b5761224a612aaf565b5b6040519080825280601f01601f19166020018201604052801561227d5781602001600182028036833780820191505090505b5090507f3000000000000000000000000000000000000000000000000000000000000000816000815181106122b5576122b4613b72565b5b60200101907effffffffffffffffffffffffffffffffffffffffffffffffffffffffffffff1916908160001a9053507f78000000000000000000000000000000000000000000000000000000000000008160018151811061231957612318613b72565b5b60200101907effffffffffffffffffffffffffffffffffffffffffffffffffffffffffffff1916908160001a9053506000600184600261235991906131de565b6123639190612ee6565b90505b6001811115612403577f3031323334353637383961626364656600000000000000000000000000000000600f8616601081106123a5576123a4613b72565b5b1a60f81b8282815181106123bc576123bb613b72565b5b60200101907effffffffffffffffffffffffffffffffffffffffffffffffffffffffffffff1916908160001a905350600485901c9450806123fc90613ba1565b9050612366565b5060008414612447576040517f08c379a000000000000000000000000000000000000000000000000000000000815260040161243e90613c17565b60405180910390fd5b8091505092915050565b61245a81612021565b8073ffffffffffffffffffffffffffffffffffffffff167fbc7cd75a20ee27fd9adebab32041f755214dbc6bffa90cc0225b39da2e5c2d3b60405160405180910390a250565b60606124ab83611e54565b6124ea576040517f08c379a00000000000000000000000000000000000000000000000000000000081526004016124e190613ca9565b60405180910390fd5b6000808473ffffffffffffffffffffffffffffffffffffffff16846040516125129190613d10565b600060405180830381855af49150503d806000811461254d576040519150601f19603f3d011682016040523d82523d6000602084013e612552565b606091505b509150915061257a8282604051806060016040528060278152602001613d2860279139612584565b9250505092915050565b606083156125945782905061259f565b61259e83836125a6565b5b9392505050565b6000825111156125b95781518083602001fd5b806040517f08c379a00000000000000000000000000000000000000000000000000000000081526004016125ed9190612801565b60405180910390fd5b82805461260290612ccf565b90600052602060002090601f016020900481019282612624576000855561266b565b82601f1061263d57805160ff191683800117855561266b565b8280016001018555821561266b579182015b8281111561266a57825182559160200191906001019061264f565b5b509050612678919061267c565b5090565b5b8082111561269557600081600090555060010161267d565b5090565b6000604051905090565b600080fd5b600080fd5b60007fffffffff0000000000000000000000000000000000000000000000000000000082169050919050565b6126e2816126ad565b81146126ed57600080fd5b50565b6000813590506126ff816126d9565b92915050565b60006020828403121561271b5761271a6126a3565b5b6000612729848285016126f0565b91505092915050565b60008115159050919050565b61274781612732565b82525050565b6000602082019050612762600083018461273e565b92915050565b600081519050919050565b600082825260208201905092915050565b60005b838110156127a2578082015181840152602081019050612787565b838111156127b1576000848401525b50505050565b6000601f19601f8301169050919050565b60006127d382612768565b6127dd8185612773565b93506127ed818560208601612784565b6127f6816127b7565b840191505092915050565b6000602082019050818103600083015261281b81846127c8565b905092915050565b600073ffffffffffffffffffffffffffffffffffffffff82169050919050565b600061284e82612823565b9050919050565b61285e81612843565b811461286957600080fd5b50565b60008135905061287b81612855565b92915050565b6000819050919050565b61289481612881565b811461289f57600080fd5b50565b6000813590506128b18161288b565b92915050565b600080604083850312156128ce576128cd6126a3565b5b60006128dc8582860161286c565b92505060206128ed858286016128a2565b9150509250929050565b61290081612881565b82525050565b600060208201905061291b60008301846128f7565b92915050565b60008060006060848603121561293a576129396126a3565b5b60006129488682870161286c565b93505060206129598682870161286c565b925050604061296a868287016128a2565b9150509250925092565b6000819050919050565b61298781612974565b811461299257600080fd5b50565b6000813590506129a48161297e565b92915050565b6000602082840312156129c0576129bf6126a3565b5b60006129ce84828501612995565b91505092915050565b6129e081612974565b82525050565b60006020820190506129fb60008301846129d7565b92915050565b60008060408385031215612a1857612a176126a3565b5b6000612a2685828601612995565b9250506020612a378582860161286c565b9150509250929050565b600060ff82169050919050565b612a5781612a41565b82525050565b6000602082019050612a726000830184612a4e565b92915050565b600060208284031215612a8e57612a8d6126a3565b5b6000612a9c8482850161286c565b91505092915050565b600080fd5b600080fd5b7f4e487b7100000000000000000000000000000000000000000000000000000000600052604160045260246000fd5b612ae7826127b7565b810181811067ffffffffffffffff82111715612b0657612b05612aaf565b5b80604052505050565b6000612b19612699565b9050612b258282612ade565b919050565b600067ffffffffffffffff821115612b4557612b44612aaf565b5b612b4e826127b7565b9050602081019050919050565b82818337600083830152505050565b6000612b7d612b7884612b2a565b612b0f565b905082815260208101848484011115612b9957612b98612aaa565b5b612ba4848285612b5b565b509392505050565b600082601f830112612bc157612bc0612aa5565b5b8135612bd1848260208601612b6a565b91505092915050565b60008060408385031215612bf157612bf06126a3565b5b6000612bff8582860161286c565b925050602083013567ffffffffffffffff811115612c2057612c1f6126a8565b5b612c2c85828601612bac565b9150509250929050565b612c3f81612843565b82525050565b6000602082019050612c5a6000830184612c36565b92915050565b60008060408385031215612c7757612c766126a3565b5b6000612c858582860161286c565b9250506020612c968582860161286c565b9150509250929050565b7f4e487b7100000000000000000000000000000000000000000000000000000000600052602260045260246000fd5b60006002820490506001821680612ce757607f821691505b60208210811415612cfb57612cfa612ca0565b5b50919050565b7f416363657373436f6e74726f6c3a2063616e206f6e6c792072656e6f756e636560008201527f20726f6c657320666f722073656c660000000000000000000000000000000000602082015250565b6000612d5d602f83612773565b9150612d6882612d01565b604082019050919050565b60006020820190508181036000830152612d8c81612d50565b9050919050565b7f46756e6374696f6e206d7573742062652063616c6c6564207468726f7567682060008201527f64656c656761746563616c6c0000000000000000000000000000000000000000602082015250565b6000612def602c83612773565b9150612dfa82612d93565b604082019050919050565b60006020820190508181036000830152612e1e81612de2565b9050919050565b7f46756e6374696f6e206d7573742062652063616c6c6564207468726f7567682060008201527f6163746976652070726f78790000000000000000000000000000000000000000602082015250565b6000612e81602c83612773565b9150612e8c82612e25565b604082019050919050565b60006020820190508181036000830152612eb081612e74565b9050919050565b7f4e487b7100000000000000000000000000000000000000000000000000000000600052601160045260246000fd5b6000612ef182612881565b9150612efc83612881565b9250827fffffffffffffffffffffffffffffffffffffffffffffffffffffffffffffffff03821115612f3157612f30612eb7565b5b828201905092915050565b7f555550535570677261646561626c653a206d757374206e6f742062652063616c60008201527f6c6564207468726f7567682064656c656761746563616c6c0000000000000000602082015250565b6000612f98603883612773565b9150612fa382612f3c565b604082019050919050565b60006020820190508181036000830152612fc781612f8b565b9050919050565b7f496e697469616c697a61626c653a20636f6e747261637420697320616c72656160008201527f647920696e697469616c697a6564000000000000000000000000000000000000602082015250565b600061302a602e83612773565b915061303582612fce565b604082019050919050565b600060208201905081810360008301526130598161301d565b9050919050565b60008160011c9050919050565b6000808291508390505b60018511156130b75780860481111561309357613092612eb7565b5b60018516156130a25780820291505b80810290506130b085613060565b9450613077565b94509492505050565b6000826130d0576001905061318c565b816130de576000905061318c565b81600181146130f457600281146130fe5761312d565b600191505061318c565b60ff8411156131105761310f612eb7565b5b8360020a91508482111561312757613126612eb7565b5b5061318c565b5060208310610133831016604e8410600b84101617156131625782820a90508381111561315d5761315c612eb7565b5b61318c565b61316f848484600161306d565b9250905081840481111561318657613185612eb7565b5b81810290505b9392505050565b600061319e82612881565b91506131a983612a41565b92506131d67fffffffffffffffffffffffffffffffffffffffffffffffffffffffffffffffff84846130c0565b905092915050565b60006131e982612881565b91506131f483612881565b9250817fffffffffffffffffffffffffffffffffffffffffffffffffffffffffffffffff048311821515161561322d5761322c612eb7565b5b828202905092915050565b6000819050919050565b6000819050919050565b600061326761326261325d84613238565b613242565b612a41565b9050919050565b6132778161324c565b82525050565b6000602082019050613292600083018461326e565b92915050565b7f45524332303a2064656372656173656420616c6c6f77616e63652062656c6f7760008201527f207a65726f000000000000000000000000000000000000000000000000000000602082015250565b60006132f4602583612773565b91506132ff82613298565b604082019050919050565b60006020820190508181036000830152613323816132e7565b9050919050565b7f4f776e61626c653a206e6577206f776e657220697320746865207a65726f206160008201527f6464726573730000000000000000000000000000000000000000000000000000602082015250565b6000613386602683612773565b91506133918261332a565b604082019050919050565b600060208201905081810360008301526133b581613379565b9050919050565b7f45524332303a20617070726f76652066726f6d20746865207a65726f2061646460008201527f7265737300000000000000000000000000000000000000000000000000000000602082015250565b6000613418602483612773565b9150613423826133bc565b604082019050919050565b600060208201905081810360008301526134478161340b565b9050919050565b7f45524332303a20617070726f766520746f20746865207a65726f20616464726560008201527f7373000000000000000000000000000000000000000000000000000000000000602082015250565b60006134aa602283612773565b91506134b58261344e565b604082019050919050565b600060208201905081810360008301526134d98161349d565b9050919050565b7f45524332303a20696e73756666696369656e7420616c6c6f77616e6365000000600082015250565b6000613516601d83612773565b9150613521826134e0565b602082019050919050565b6000602082019050818103600083015261354581613509565b9050919050565b7f45524332303a207472616e736665722066726f6d20746865207a65726f20616460008201527f6472657373000000000000000000000000000000000000000000000000000000602082015250565b60006135a8602583612773565b91506135b38261354c565b604082019050919050565b600060208201905081810360008301526135d78161359b565b9050919050565b7f45524332303a207472616e7366657220746f20746865207a65726f206164647260008201527f6573730000000000000000000000000000000000000000000000000000000000602082015250565b600061363a602383612773565b9150613645826135de565b604082019050919050565b600060208201905081810360008301526136698161362d565b9050919050565b7f45524332303a207472616e7366657220616d6f756e742065786365656473206260008201527f616c616e63650000000000000000000000000000000000000000000000000000602082015250565b60006136cc602683612773565b91506136d782613670565b604082019050919050565b600060208201905081810360008301526136fb816136bf565b9050919050565b6000815190506137118161297e565b92915050565b60006020828403121561372d5761372c6126a3565b5b600061373b84828501613702565b91505092915050565b7f45524331393637557067726164653a206e657720696d706c656d656e7461746960008201527f6f6e206973206e6f742055555053000000000000000000000000000000000000602082015250565b60006137a0602e83612773565b91506137ab82613744565b604082019050919050565b600060208201905081810360008301526137cf81613793565b9050919050565b7f45524331393637557067726164653a20756e737570706f727465642070726f7860008201527f6961626c65555549440000000000000000000000000000000000000000000000602082015250565b6000613832602983612773565b915061383d826137d6565b604082019050919050565b6000602082019050818103600083015261386181613825565b9050919050565b7f45524332303a206d696e7420746f20746865207a65726f206164647265737300600082015250565b600061389e601f83612773565b91506138a982613868565b602082019050919050565b600060208201905081810360008301526138cd81613891565b9050919050565b7f4f776e61626c653a2063616c6c6572206973206e6f7420746865206f776e6572600082015250565b600061390a602083612773565b9150613915826138d4565b602082019050919050565b60006020820190508181036000830152613939816138fd565b9050919050565b7f496e697469616c697a61626c653a20636f6e7472616374206973206e6f74206960008201527f6e697469616c697a696e67000000000000000000000000000000000000000000602082015250565b600061399c602b83612773565b91506139a782613940565b604082019050919050565b600060208201905081810360008301526139cb8161398f565b9050919050565b600081905092915050565b7f416363657373436f6e74726f6c3a206163636f756e7420000000000000000000600082015250565b6000613a136017836139d2565b9150613a1e826139dd565b601782019050919050565b6000613a3482612768565b613a3e81856139d2565b9350613a4e818560208601612784565b80840191505092915050565b7f206973206d697373696e6720726f6c6520000000000000000000000000000000600082015250565b6000613a906011836139d2565b9150613a9b82613a5a565b601182019050919050565b6000613ab182613a06565b9150613abd8285613a29565b9150613ac882613a83565b9150613ad48284613a29565b91508190509392505050565b7f455243313936373a206e657720696d706c656d656e746174696f6e206973206e60008201527f6f74206120636f6e747261637400000000000000000000000000000000000000602082015250565b6000613b3c602d83612773565b9150613b4782613ae0565b604082019050919050565b60006020820190508181036000830152613b6b81613b2f565b9050919050565b7f4e487b7100000000000000000000000000000000000000000000000000000000600052603260045260246000fd5b6000613bac82612881565b91506000821415613bc057613bbf612eb7565b5b600182039050919050565b7f537472696e67733a20686578206c656e67746820696e73756666696369656e74600082015250565b6000613c01602083612773565b9150613c0c82613bcb565b602082019050919050565b60006020820190508181036000830152613c3081613bf4565b9050919050565b7f416464726573733a2064656c65676174652063616c6c20746f206e6f6e2d636f60008201527f6e74726163740000000000000000000000000000000000000000000000000000602082015250565b6000613c93602683612773565b9150613c9e82613c37565b604082019050919050565b60006020820190508181036000830152613cc281613c86565b9050919050565b600081519050919050565b600081905092915050565b6000613cea82613cc9565b613cf48185613cd4565b9350613d04818560208601612784565b80840191505092915050565b6000613d1c8284613cdf565b91508190509291505056fe416464726573733a206c6f772d6c6576656c2064656c65676174652063616c6c206661696c6564a264697066735822122085e1ea5bcea9924a98dbec38898dd9ce7cf8c314f86ac8da7badc0aca323301364736f6c63430008090033",
  "linkReferences": {},
  "deployedLinkReferences": {}
}