{
  "_format": "hh-sol-artifact-1",
  "contractName": "MetropolitanNFT",
  "sourceName": "contracts/MetropolitanNFT.sol",
  "abi": [
    {
      "inputs": [],
      "stateMutability": "nonpayable",
      "type": "constructor"
    },
    {
      "anonymous": false,
      "inputs": [
        {
          "indexed": false,
          "internalType": "address",
          "name": "previousAdmin",
          "type": "address"
        },
        {
          "indexed": false,
          "internalType": "address",
          "name": "newAdmin",
          "type": "address"
        }
      ],
      "name": "AdminChanged",
      "type": "event"
    },
    {
      "anonymous": false,
      "inputs": [
        {
          "indexed": true,
          "internalType": "address",
          "name": "owner",
          "type": "address"
        },
        {
          "indexed": true,
          "internalType": "address",
          "name": "approved",
          "type": "address"
        },
        {
          "indexed": true,
          "internalType": "uint256",
          "name": "tokenId",
          "type": "uint256"
        }
      ],
      "name": "Approval",
      "type": "event"
    },
    {
      "anonymous": false,
      "inputs": [
        {
          "indexed": true,
          "internalType": "address",
          "name": "owner",
          "type": "address"
        },
        {
          "indexed": true,
          "internalType": "address",
          "name": "operator",
          "type": "address"
        },
        {
          "indexed": false,
          "internalType": "bool",
          "name": "approved",
          "type": "bool"
        }
      ],
      "name": "ApprovalForAll",
      "type": "event"
    },
    {
      "anonymous": false,
      "inputs": [
        {
          "indexed": true,
          "internalType": "address",
          "name": "beacon",
          "type": "address"
        }
      ],
      "name": "BeaconUpgraded",
      "type": "event"
    },
    {
      "anonymous": false,
      "inputs": [
        {
          "indexed": false,
          "internalType": "uint8",
          "name": "version",
          "type": "uint8"
        }
      ],
      "name": "Initialized",
      "type": "event"
    },
    {
      "anonymous": false,
      "inputs": [
        {
          "indexed": false,
          "internalType": "address",
          "name": "account",
          "type": "address"
        }
      ],
      "name": "Paused",
      "type": "event"
    },
    {
      "anonymous": false,
      "inputs": [
        {
          "indexed": true,
          "internalType": "bytes32",
          "name": "role",
          "type": "bytes32"
        },
        {
          "indexed": true,
          "internalType": "bytes32",
          "name": "previousAdminRole",
          "type": "bytes32"
        },
        {
          "indexed": true,
          "internalType": "bytes32",
          "name": "newAdminRole",
          "type": "bytes32"
        }
      ],
      "name": "RoleAdminChanged",
      "type": "event"
    },
    {
      "anonymous": false,
      "inputs": [
        {
          "indexed": true,
          "internalType": "bytes32",
          "name": "role",
          "type": "bytes32"
        },
        {
          "indexed": true,
          "internalType": "address",
          "name": "account",
          "type": "address"
        },
        {
          "indexed": true,
          "internalType": "address",
          "name": "sender",
          "type": "address"
        }
      ],
      "name": "RoleGranted",
      "type": "event"
    },
    {
      "anonymous": false,
      "inputs": [
        {
          "indexed": true,
          "internalType": "bytes32",
          "name": "role",
          "type": "bytes32"
        },
        {
          "indexed": true,
          "internalType": "address",
          "name": "account",
          "type": "address"
        },
        {
          "indexed": true,
          "internalType": "address",
          "name": "sender",
          "type": "address"
        }
      ],
      "name": "RoleRevoked",
      "type": "event"
    },
    {
      "anonymous": false,
      "inputs": [
        {
          "indexed": true,
          "internalType": "address",
          "name": "from",
          "type": "address"
        },
        {
          "indexed": true,
          "internalType": "address",
          "name": "to",
          "type": "address"
        },
        {
          "indexed": true,
          "internalType": "uint256",
          "name": "tokenId",
          "type": "uint256"
        }
      ],
      "name": "Transfer",
      "type": "event"
    },
    {
      "anonymous": false,
      "inputs": [
        {
          "indexed": false,
          "internalType": "address",
          "name": "account",
          "type": "address"
        }
      ],
      "name": "Unpaused",
      "type": "event"
    },
    {
      "anonymous": false,
      "inputs": [
        {
          "indexed": true,
          "internalType": "address",
          "name": "implementation",
          "type": "address"
        }
      ],
      "name": "Upgraded",
      "type": "event"
    },
    {
      "inputs": [],
      "name": "BURNER_ROLE",
      "outputs": [
        {
          "internalType": "bytes32",
          "name": "",
          "type": "bytes32"
        }
      ],
      "stateMutability": "view",
      "type": "function"
    },
    {
      "inputs": [],
      "name": "DEFAULT_ADMIN_ROLE",
      "outputs": [
        {
          "internalType": "bytes32",
          "name": "",
          "type": "bytes32"
        }
      ],
      "stateMutability": "view",
      "type": "function"
    },
    {
      "inputs": [],
      "name": "MINTER_ROLE",
      "outputs": [
        {
          "internalType": "bytes32",
          "name": "",
          "type": "bytes32"
        }
      ],
      "stateMutability": "view",
      "type": "function"
    },
    {
      "inputs": [],
      "name": "PAUSER_ROLE",
      "outputs": [
        {
          "internalType": "bytes32",
          "name": "",
          "type": "bytes32"
        }
      ],
      "stateMutability": "view",
      "type": "function"
    },
    {
      "inputs": [
        {
          "internalType": "address",
          "name": "to",
          "type": "address"
        },
        {
          "internalType": "uint256",
          "name": "tokenId",
          "type": "uint256"
        }
      ],
      "name": "approve",
      "outputs": [],
      "stateMutability": "nonpayable",
      "type": "function"
    },
    {
      "inputs": [
        {
          "internalType": "address",
          "name": "owner",
          "type": "address"
        }
      ],
      "name": "balanceOf",
      "outputs": [
        {
          "internalType": "uint256",
          "name": "",
          "type": "uint256"
        }
      ],
      "stateMutability": "view",
      "type": "function"
    },
    {
      "inputs": [
        {
          "internalType": "uint256",
          "name": "tokenId",
          "type": "uint256"
        }
      ],
      "name": "getApproved",
      "outputs": [
        {
          "internalType": "address",
          "name": "",
          "type": "address"
        }
      ],
      "stateMutability": "view",
      "type": "function"
    },
    {
      "inputs": [
        {
          "internalType": "bytes32",
          "name": "role",
          "type": "bytes32"
        }
      ],
      "name": "getRoleAdmin",
      "outputs": [
        {
          "internalType": "bytes32",
          "name": "",
          "type": "bytes32"
        }
      ],
      "stateMutability": "view",
      "type": "function"
    },
    {
      "inputs": [
        {
          "internalType": "bytes32",
          "name": "role",
          "type": "bytes32"
        },
        {
          "internalType": "address",
          "name": "account",
          "type": "address"
        }
      ],
      "name": "grantRole",
      "outputs": [],
      "stateMutability": "nonpayable",
      "type": "function"
    },
    {
      "inputs": [
        {
          "internalType": "bytes32",
          "name": "role",
          "type": "bytes32"
        },
        {
          "internalType": "address",
          "name": "account",
          "type": "address"
        }
      ],
      "name": "hasRole",
      "outputs": [
        {
          "internalType": "bool",
          "name": "",
          "type": "bool"
        }
      ],
      "stateMutability": "view",
      "type": "function"
    },
    {
      "inputs": [
        {
          "internalType": "string",
          "name": "_name",
          "type": "string"
        },
        {
          "internalType": "string",
          "name": "_symbol",
          "type": "string"
        }
      ],
      "name": "initialize",
      "outputs": [],
      "stateMutability": "nonpayable",
      "type": "function"
    },
    {
      "inputs": [
        {
          "internalType": "address",
          "name": "owner",
          "type": "address"
        },
        {
          "internalType": "address",
          "name": "operator",
          "type": "address"
        }
      ],
      "name": "isApprovedForAll",
      "outputs": [
        {
          "internalType": "bool",
          "name": "",
          "type": "bool"
        }
      ],
      "stateMutability": "view",
      "type": "function"
    },
    {
      "inputs": [],
      "name": "name",
      "outputs": [
        {
          "internalType": "string",
          "name": "",
          "type": "string"
        }
      ],
      "stateMutability": "view",
      "type": "function"
    },
    {
      "inputs": [
        {
          "internalType": "address",
          "name": "dueno",
          "type": "address"
        }
      ],
      "name": "obtenerNFTs",
      "outputs": [
        {
          "internalType": "uint256[]",
          "name": "",
          "type": "uint256[]"
        }
      ],
      "stateMutability": "view",
      "type": "function"
    },
    {
      "inputs": [
        {
          "internalType": "uint256",
          "name": "tokenId",
          "type": "uint256"
        }
      ],
      "name": "ownerOf",
      "outputs": [
        {
          "internalType": "address",
          "name": "",
          "type": "address"
        }
      ],
      "stateMutability": "view",
      "type": "function"
    },
    {
      "inputs": [],
      "name": "pause",
      "outputs": [],
      "stateMutability": "nonpayable",
      "type": "function"
    },
    {
      "inputs": [],
      "name": "paused",
      "outputs": [
        {
          "internalType": "bool",
          "name": "",
          "type": "bool"
        }
      ],
      "stateMutability": "view",
      "type": "function"
    },
    {
      "inputs": [],
      "name": "proxiableUUID",
      "outputs": [
        {
          "internalType": "bytes32",
          "name": "",
          "type": "bytes32"
        }
      ],
      "stateMutability": "view",
      "type": "function"
    },
    {
      "inputs": [
        {
          "internalType": "bytes32",
          "name": "role",
          "type": "bytes32"
        },
        {
          "internalType": "address",
          "name": "account",
          "type": "address"
        }
      ],
      "name": "renounceRole",
      "outputs": [],
      "stateMutability": "nonpayable",
      "type": "function"
    },
    {
      "inputs": [
        {
          "internalType": "bytes32",
          "name": "role",
          "type": "bytes32"
        },
        {
          "internalType": "address",
          "name": "account",
          "type": "address"
        }
      ],
      "name": "revokeRole",
      "outputs": [],
      "stateMutability": "nonpayable",
      "type": "function"
    },
    {
      "inputs": [
        {
          "internalType": "address",
          "name": "dueno",
          "type": "address"
        },
        {
          "internalType": "uint256",
          "name": "idNFT",
          "type": "uint256"
        }
      ],
      "name": "safeBurn",
      "outputs": [],
      "stateMutability": "nonpayable",
      "type": "function"
    },
    {
      "inputs": [
        {
          "internalType": "address",
          "name": "addressTo",
          "type": "address"
        },
        {
          "internalType": "uint256",
          "name": "idNFT",
          "type": "uint256"
        }
      ],
      "name": "safeMint",
      "outputs": [],
      "stateMutability": "nonpayable",
      "type": "function"
    },
    {
      "inputs": [
        {
          "internalType": "address",
          "name": "from",
          "type": "address"
        },
        {
          "internalType": "address",
          "name": "to",
          "type": "address"
        },
        {
          "internalType": "uint256",
          "name": "tokenId",
          "type": "uint256"
        }
      ],
      "name": "safeTransferFrom",
      "outputs": [],
      "stateMutability": "nonpayable",
      "type": "function"
    },
    {
      "inputs": [
        {
          "internalType": "address",
          "name": "from",
          "type": "address"
        },
        {
          "internalType": "address",
          "name": "to",
          "type": "address"
        },
        {
          "internalType": "uint256",
          "name": "tokenId",
          "type": "uint256"
        },
        {
          "internalType": "bytes",
          "name": "data",
          "type": "bytes"
        }
      ],
      "name": "safeTransferFrom",
      "outputs": [],
      "stateMutability": "nonpayable",
      "type": "function"
    },
    {
      "inputs": [
        {
          "internalType": "address",
          "name": "operator",
          "type": "address"
        },
        {
          "internalType": "bool",
          "name": "approved",
          "type": "bool"
        }
      ],
      "name": "setApprovalForAll",
      "outputs": [],
      "stateMutability": "nonpayable",
      "type": "function"
    },
    {
      "inputs": [
        {
          "internalType": "uint256",
          "name": "newMaxId",
          "type": "uint256"
        }
      ],
      "name": "setMaxIdNFT",
      "outputs": [],
      "stateMutability": "nonpayable",
      "type": "function"
    },
    {
      "inputs": [
        {
          "internalType": "bytes4",
          "name": "interfaceId",
          "type": "bytes4"
        }
      ],
      "name": "supportsInterface",
      "outputs": [
        {
          "internalType": "bool",
          "name": "",
          "type": "bool"
        }
      ],
      "stateMutability": "view",
      "type": "function"
    },
    {
      "inputs": [],
      "name": "symbol",
      "outputs": [
        {
          "internalType": "string",
          "name": "",
          "type": "string"
        }
      ],
      "stateMutability": "view",
      "type": "function"
    },
    {
      "inputs": [
        {
          "internalType": "uint256",
          "name": "tokenId",
          "type": "uint256"
        }
      ],
      "name": "tokenURI",
      "outputs": [
        {
          "internalType": "string",
          "name": "",
          "type": "string"
        }
      ],
      "stateMutability": "view",
      "type": "function"
    },
    {
      "inputs": [
        {
          "internalType": "address",
          "name": "from",
          "type": "address"
        },
        {
          "internalType": "address",
          "name": "to",
          "type": "address"
        },
        {
          "internalType": "uint256",
          "name": "tokenId",
          "type": "uint256"
        }
      ],
      "name": "transferFrom",
      "outputs": [],
      "stateMutability": "nonpayable",
      "type": "function"
    },
    {
      "inputs": [],
      "name": "unpause",
      "outputs": [],
      "stateMutability": "nonpayable",
      "type": "function"
    },
    {
      "inputs": [
        {
          "internalType": "address",
          "name": "newImplementation",
          "type": "address"
        }
      ],
      "name": "upgradeTo",
      "outputs": [],
      "stateMutability": "nonpayable",
      "type": "function"
    },
    {
      "inputs": [
        {
          "internalType": "address",
          "name": "newImplementation",
          "type": "address"
        },
        {
          "internalType": "bytes",
          "name": "data",
          "type": "bytes"
        }
      ],
      "name": "upgradeToAndCall",
      "outputs": [],
      "stateMutability": "payable",
      "type": "function"
    }
  ],
  "bytecode": "0x60a06040523073ffffffffffffffffffffffffffffffffffffffff1660809073ffffffffffffffffffffffffffffffffffffffff168152503480156200004457600080fd5b50620000556200005b60201b60201c565b62000206565b600060019054906101000a900460ff1615620000ae576040517f08c379a0000000000000000000000000000000000000000000000000000000008152600401620000a590620001a9565b60405180910390fd5b60ff801660008054906101000a900460ff1660ff161015620001205760ff6000806101000a81548160ff021916908360ff1602179055507f7f26b83ff96e1f2b6a682f133852f6798a09c465da95921460cefb384740249860ff604051620001179190620001e9565b60405180910390a15b565b600082825260208201905092915050565b7f496e697469616c697a61626c653a20636f6e747261637420697320696e69746960008201527f616c697a696e6700000000000000000000000000000000000000000000000000602082015250565b60006200019160278362000122565b91506200019e8262000133565b604082019050919050565b60006020820190508181036000830152620001c48162000182565b9050919050565b600060ff82169050919050565b620001e381620001cb565b82525050565b6000602082019050620002006000830184620001d8565b92915050565b608051615a7b6200023e60003960008181610b1b01528181610baa01528181610ee701528181610f7601526110260152615a7b6000f3fe6080604052600436106101ee5760003560e01c80636352211e1161010d578063a217fddf116100a0578063d53913931161006f578063d5391393146106d6578063d547741f14610701578063dce2a0e01461072a578063e63ab1e914610767578063e985e9c514610792576101ee565b8063a217fddf1461061c578063a22cb46514610647578063b88d4fde14610670578063c87b56dd14610699576101ee565b806391d14854116100dc57806391d148541461056257806395d89b411461059f5780639f15d700146105ca578063a1448194146105f3576101ee565b80636352211e146104a85780636fd8e150146104e557806370a082311461050e5780638456cb591461054b576101ee565b806336568abe116101855780634cd88b76116101545780634cd88b761461040d5780634f1ef2861461043657806352d1902d146104525780635c975abb1461047d576101ee565b806336568abe1461037b5780633659cfe6146103a45780633f4ba83a146103cd57806342842e0e146103e4576101ee565b806323b872dd116101c157806323b872dd146102c1578063248a9ca3146102ea578063282c51f3146103275780632f2ff15d14610352576101ee565b806301ffc9a7146101f357806306fdde0314610230578063081812fc1461025b578063095ea7b314610298575b600080fd5b3480156101ff57600080fd5b5061021a60048036038101906102159190613c3c565b6107cf565b6040516102279190613c84565b60405180910390f35b34801561023c57600080fd5b506102456107e1565b6040516102529190613d38565b60405180910390f35b34801561026757600080fd5b50610282600480360381019061027d9190613d90565b610873565b60405161028f9190613dfe565b60405180910390f35b3480156102a457600080fd5b506102bf60048036038101906102ba9190613e45565b6108b9565b005b3480156102cd57600080fd5b506102e860048036038101906102e39190613e85565b6109d1565b005b3480156102f657600080fd5b50610311600480360381019061030c9190613f0e565b610a31565b60405161031e9190613f4a565b60405180910390f35b34801561033357600080fd5b5061033c610a51565b6040516103499190613f4a565b60405180910390f35b34801561035e57600080fd5b5061037960048036038101906103749190613f65565b610a75565b005b34801561038757600080fd5b506103a2600480360381019061039d9190613f65565b610a96565b005b3480156103b057600080fd5b506103cb60048036038101906103c69190613fa5565b610b19565b005b3480156103d957600080fd5b506103e2610ca2565b005b3480156103f057600080fd5b5061040b60048036038101906104069190613e85565b610cd7565b005b34801561041957600080fd5b50610434600480360381019061042f9190614107565b610cf7565b005b610450600480360381019061044b9190614220565b610ee5565b005b34801561045e57600080fd5b50610467611022565b6040516104749190613f4a565b60405180910390f35b34801561048957600080fd5b506104926110db565b60405161049f9190613c84565b60405180910390f35b3480156104b457600080fd5b506104cf60048036038101906104ca9190613d90565b6110f2565b6040516104dc9190613dfe565b60405180910390f35b3480156104f157600080fd5b5061050c60048036038101906105079190613d90565b611179565b005b34801561051a57600080fd5b5061053560048036038101906105309190613fa5565b611192565b604051610542919061428b565b60405180910390f35b34801561055757600080fd5b5061056061124a565b005b34801561056e57600080fd5b5061058960048036038101906105849190613f65565b61127f565b6040516105969190613c84565b60405180910390f35b3480156105ab57600080fd5b506105b46112ea565b6040516105c19190613d38565b60405180910390f35b3480156105d657600080fd5b506105f160048036038101906105ec9190613e45565b61137c565b005b3480156105ff57600080fd5b5061061a60048036038101906106159190613e45565b6116fc565b005b34801561062857600080fd5b5061063161195f565b60405161063e9190613f4a565b60405180910390f35b34801561065357600080fd5b5061066e600480360381019061066991906142d2565b611966565b005b34801561067c57600080fd5b5061069760048036038101906106929190614312565b61197c565b005b3480156106a557600080fd5b506106c060048036038101906106bb9190613d90565b6119de565b6040516106cd9190613d38565b60405180910390f35b3480156106e257600080fd5b506106eb611a85565b6040516106f89190613f4a565b60405180910390f35b34801561070d57600080fd5b5061072860048036038101906107239190613f65565b611aa9565b005b34801561073657600080fd5b50610751600480360381019061074c9190613fa5565b611aca565b60405161075e9190614453565b60405180910390f35b34801561077357600080fd5b5061077c611b62565b6040516107899190613f4a565b60405180910390f35b34801561079e57600080fd5b506107b960048036038101906107b49190614475565b611b86565b6040516107c69190613c84565b60405180910390f35b60006107da82611c1a565b9050919050565b6060606580546107f0906144e4565b80601f016020809104026020016040519081016040528092919081815260200182805461081c906144e4565b80156108695780601f1061083e57610100808354040283529160200191610869565b820191906000526020600020905b81548152906001019060200180831161084c57829003601f168201915b5050505050905090565b600061087e82611c94565b6069600083815260200190815260200160002060009054906101000a900473ffffffffffffffffffffffffffffffffffffffff169050919050565b60006108c4826110f2565b90508073ffffffffffffffffffffffffffffffffffffffff168373ffffffffffffffffffffffffffffffffffffffff161415610935576040517f08c379a000000000000000000000000000000000000000000000000000000000815260040161092c90614588565b60405180910390fd5b8073ffffffffffffffffffffffffffffffffffffffff16610954611cdf565b73ffffffffffffffffffffffffffffffffffffffff16148061098357506109828161097d611cdf565b611b86565b5b6109c2576040517f08c379a00000000000000000000000000000000000000000000000000000000081526004016109b99061461a565b60405180910390fd5b6109cc8383611ce7565b505050565b6109e26109dc611cdf565b82611da0565b610a21576040517f08c379a0000000000000000000000000000000000000000000000000000000008152600401610a18906146ac565b60405180910390fd5b610a2c838383611e35565b505050565b600060c96000838152602001908152602001600020600101549050919050565b7f3c11d16cbaffd01df69ce1c404f6340ee057498f5f00246190ea54220576a84881565b610a7e82610a31565b610a878161212f565b610a918383612143565b505050565b610a9e611cdf565b73ffffffffffffffffffffffffffffffffffffffff168173ffffffffffffffffffffffffffffffffffffffff1614610b0b576040517f08c379a0000000000000000000000000000000000000000000000000000000008152600401610b029061473e565b60405180910390fd5b610b158282612224565b5050565b7f000000000000000000000000000000000000000000000000000000000000000073ffffffffffffffffffffffffffffffffffffffff163073ffffffffffffffffffffffffffffffffffffffff161415610ba8576040517f08c379a0000000000000000000000000000000000000000000000000000000008152600401610b9f906147d0565b60405180910390fd5b7f000000000000000000000000000000000000000000000000000000000000000073ffffffffffffffffffffffffffffffffffffffff16610be7612306565b73ffffffffffffffffffffffffffffffffffffffff1614610c3d576040517f08c379a0000000000000000000000000000000000000000000000000000000008152600401610c3490614862565b60405180910390fd5b610c468161235d565b610c9f81600067ffffffffffffffff811115610c6557610c64613fdc565b5b6040519080825280601f01601f191660200182016040528015610c975781602001600182028036833780820191505090505b50600061238b565b50565b7f65d7a28e3265b37a6474929f336521b332c1681b933f6cb9f3376673440d862a610ccc8161212f565b610cd4612508565b50565b610cf28383836040518060200160405280600081525061197c565b505050565b60008060019054906101000a900460ff16159050808015610d285750600160008054906101000a900460ff1660ff16105b80610d555750610d373061256b565b158015610d545750600160008054906101000a900460ff1660ff16145b5b610d94576040517f08c379a0000000000000000000000000000000000000000000000000000000008152600401610d8b906148f4565b60405180910390fd5b60016000806101000a81548160ff021916908360ff1602179055508015610dd1576001600060016101000a81548160ff0219169083151502179055505b610ddb838361258e565b610de36125eb565b610deb612644565b610df3612695565b610e006000801b33612143565b610e2a7f9f2df0fed2c77648de5860a4cc508cd0818c85b8b8a1ab4ceeef8d981c8956a633612143565b610e547f65d7a28e3265b37a6474929f336521b332c1681b933f6cb9f3376673440d862a33612143565b610e7e7f3c11d16cbaffd01df69ce1c404f6340ee057498f5f00246190ea54220576a84833612143565b6076610163819055508015610ee05760008060016101000a81548160ff0219169083151502179055507f7f26b83ff96e1f2b6a682f133852f6798a09c465da95921460cefb38474024986001604051610ed79190614966565b60405180910390a15b505050565b7f000000000000000000000000000000000000000000000000000000000000000073ffffffffffffffffffffffffffffffffffffffff163073ffffffffffffffffffffffffffffffffffffffff161415610f74576040517f08c379a0000000000000000000000000000000000000000000000000000000008152600401610f6b906147d0565b60405180910390fd5b7f000000000000000000000000000000000000000000000000000000000000000073ffffffffffffffffffffffffffffffffffffffff16610fb3612306565b73ffffffffffffffffffffffffffffffffffffffff1614611009576040517f08c379a000000000000000000000000000000000000000000000000000000000815260040161100090614862565b60405180910390fd5b6110128261235d565b61101e8282600161238b565b5050565b60007f000000000000000000000000000000000000000000000000000000000000000073ffffffffffffffffffffffffffffffffffffffff163073ffffffffffffffffffffffffffffffffffffffff16146110b2576040517f08c379a00000000000000000000000000000000000000000000000000000000081526004016110a9906149f3565b60405180910390fd5b7f360894a13ba1a3210667c828492db98dca3e2076cc3735a920a3ca505d382bbc60001b905090565b6000609760009054906101000a900460ff16905090565b6000806110fe836126e6565b9050600073ffffffffffffffffffffffffffffffffffffffff168173ffffffffffffffffffffffffffffffffffffffff161415611170576040517f08c379a000000000000000000000000000000000000000000000000000000000815260040161116790614a5f565b60405180910390fd5b80915050919050565b6000801b6111868161212f565b81610163819055505050565b60008073ffffffffffffffffffffffffffffffffffffffff168273ffffffffffffffffffffffffffffffffffffffff161415611203576040517f08c379a00000000000000000000000000000000000000000000000000000000081526004016111fa90614af1565b60405180910390fd5b606860008373ffffffffffffffffffffffffffffffffffffffff1673ffffffffffffffffffffffffffffffffffffffff168152602001908152602001600020549050919050565b7f65d7a28e3265b37a6474929f336521b332c1681b933f6cb9f3376673440d862a6112748161212f565b61127c612723565b50565b600060c9600084815260200190815260200160002060000160008373ffffffffffffffffffffffffffffffffffffffff1673ffffffffffffffffffffffffffffffffffffffff16815260200190815260200160002060009054906101000a900460ff16905092915050565b6060606680546112f9906144e4565b80601f0160208091040260200160405190810160405280929190818152602001828054611325906144e4565b80156113725780601f1061134757610100808354040283529160200191611372565b820191906000526020600020905b81548152906001019060200180831161135557829003601f168201915b5050505050905090565b7f3c11d16cbaffd01df69ce1c404f6340ee057498f5f00246190ea54220576a8486113a68161212f565b600073ffffffffffffffffffffffffffffffffffffffff168373ffffffffffffffffffffffffffffffffffffffff161415611416576040517f08c379a000000000000000000000000000000000000000000000000000000000815260040161140d90614b83565b60405180910390fd5b60008211801561143457506001610163546114319190614bd2565b82105b611473576040517f08c379a000000000000000000000000000000000000000000000000000000000815260040161146a90614c9a565b60405180910390fd5b8273ffffffffffffffffffffffffffffffffffffffff16610160600084815260200190815260200160002060009054906101000a900473ffffffffffffffffffffffffffffffffffffffff1673ffffffffffffffffffffffffffffffffffffffff1614611515576040517f08c379a000000000000000000000000000000000000000000000000000000000815260040161150c90614d2c565b60405180910390fd5b610160600083815260200190815260200160002060006101000a81549073ffffffffffffffffffffffffffffffffffffffff021916905560005b61015f60008573ffffffffffffffffffffffffffffffffffffffff1673ffffffffffffffffffffffffffffffffffffffff1681526020019081526020016000208054905081101561169b578261015f60008673ffffffffffffffffffffffffffffffffffffffff1673ffffffffffffffffffffffffffffffffffffffff16815260200190815260200160002082815481106115ed576115ec614d4c565b5b9060005260206000200154146116885761016161015f60008673ffffffffffffffffffffffffffffffffffffffff1673ffffffffffffffffffffffffffffffffffffffff168152602001908152602001600020828154811061165257611651614d4c565b5b9060005260206000200154908060018154018082558091505060019003906000526020600020016000909190919091505561169b565b808061169390614d7b565b91505061154f565b5061016161015f60008573ffffffffffffffffffffffffffffffffffffffff1673ffffffffffffffffffffffffffffffffffffffff1681526020019081526020016000209080546116ed929190613adb565b506116f782612786565b505050565b7f9f2df0fed2c77648de5860a4cc508cd0818c85b8b8a1ab4ceeef8d981c8956a66117268161212f565b600073ffffffffffffffffffffffffffffffffffffffff168373ffffffffffffffffffffffffffffffffffffffff161415611796576040517f08c379a000000000000000000000000000000000000000000000000000000000815260040161178d90614b83565b60405180910390fd5b6000821180156117b457506001610163546117b19190614bd2565b82105b6117f3576040517f08c379a00000000000000000000000000000000000000000000000000000000081526004016117ea90614c9a565b60405180910390fd5b600073ffffffffffffffffffffffffffffffffffffffff16610160600084815260200190815260200160002060009054906101000a900473ffffffffffffffffffffffffffffffffffffffff1673ffffffffffffffffffffffffffffffffffffffff1614611896576040517f08c379a000000000000000000000000000000000000000000000000000000000815260040161188d90614e36565b60405180910390fd5b82610160600084815260200190815260200160002060006101000a81548173ffffffffffffffffffffffffffffffffffffffff021916908373ffffffffffffffffffffffffffffffffffffffff16021790555061015f60008473ffffffffffffffffffffffffffffffffffffffff1673ffffffffffffffffffffffffffffffffffffffff16815260200190815260200160002082908060018154018082558091505060019003906000526020600020016000909190919091505561195a83836128d4565b505050565b6000801b81565b611978611971611cdf565b83836128f2565b5050565b61198d611987611cdf565b83611da0565b6119cc576040517f08c379a00000000000000000000000000000000000000000000000000000000081526004016119c3906146ac565b60405180910390fd5b6119d884848484612a5f565b50505050565b60606119e982612abb565b611a28576040517f08c379a0000000000000000000000000000000000000000000000000000000008152600401611a1f90614ec8565b60405180910390fd5b6000611a32612afc565b90506000815111611a525760405180602001604052806000815250611a7d565b80611a5c84612b1c565b604051602001611a6d929190614f70565b6040516020818303038152906040525b915050919050565b7f9f2df0fed2c77648de5860a4cc508cd0818c85b8b8a1ab4ceeef8d981c8956a681565b611ab282610a31565b611abb8161212f565b611ac58383612224565b505050565b606061015f60008373ffffffffffffffffffffffffffffffffffffffff1673ffffffffffffffffffffffffffffffffffffffff168152602001908152602001600020805480602002602001604051908101604052809291908181526020018280548015611b5657602002820191906000526020600020905b815481526020019060010190808311611b42575b50505050509050919050565b7f65d7a28e3265b37a6474929f336521b332c1681b933f6cb9f3376673440d862a81565b6000606a60008473ffffffffffffffffffffffffffffffffffffffff1673ffffffffffffffffffffffffffffffffffffffff16815260200190815260200160002060008373ffffffffffffffffffffffffffffffffffffffff1673ffffffffffffffffffffffffffffffffffffffff16815260200190815260200160002060009054906101000a900460ff16905092915050565b60007f7965db0b000000000000000000000000000000000000000000000000000000007bffffffffffffffffffffffffffffffffffffffffffffffffffffffff1916827bffffffffffffffffffffffffffffffffffffffffffffffffffffffff19161480611c8d5750611c8c82612bf4565b5b9050919050565b611c9d81612abb565b611cdc576040517f08c379a0000000000000000000000000000000000000000000000000000000008152600401611cd390614a5f565b60405180910390fd5b50565b600033905090565b816069600083815260200190815260200160002060006101000a81548173ffffffffffffffffffffffffffffffffffffffff021916908373ffffffffffffffffffffffffffffffffffffffff160217905550808273ffffffffffffffffffffffffffffffffffffffff16611d5a836110f2565b73ffffffffffffffffffffffffffffffffffffffff167f8c5be1e5ebec7d5bd14f71427d1e84f3dd0314c0f7b2291e5b200ac8c7c3b92560405160405180910390a45050565b600080611dac836110f2565b90508073ffffffffffffffffffffffffffffffffffffffff168473ffffffffffffffffffffffffffffffffffffffff161480611dee5750611ded8185611b86565b5b80611e2c57508373ffffffffffffffffffffffffffffffffffffffff16611e1484610873565b73ffffffffffffffffffffffffffffffffffffffff16145b91505092915050565b8273ffffffffffffffffffffffffffffffffffffffff16611e55826110f2565b73ffffffffffffffffffffffffffffffffffffffff1614611eab576040517f08c379a0000000000000000000000000000000000000000000000000000000008152600401611ea290615011565b60405180910390fd5b600073ffffffffffffffffffffffffffffffffffffffff168273ffffffffffffffffffffffffffffffffffffffff161415611f1b576040517f08c379a0000000000000000000000000000000000000000000000000000000008152600401611f12906150a3565b60405180910390fd5b611f288383836001612cd6565b8273ffffffffffffffffffffffffffffffffffffffff16611f48826110f2565b73ffffffffffffffffffffffffffffffffffffffff1614611f9e576040517f08c379a0000000000000000000000000000000000000000000000000000000008152600401611f9590615011565b60405180910390fd5b6069600082815260200190815260200160002060006101000a81549073ffffffffffffffffffffffffffffffffffffffff02191690556001606860008573ffffffffffffffffffffffffffffffffffffffff1673ffffffffffffffffffffffffffffffffffffffff168152602001908152602001600020600082825403925050819055506001606860008473ffffffffffffffffffffffffffffffffffffffff1673ffffffffffffffffffffffffffffffffffffffff16815260200190815260200160002060008282540192505081905550816067600083815260200190815260200160002060006101000a81548173ffffffffffffffffffffffffffffffffffffffff021916908373ffffffffffffffffffffffffffffffffffffffff160217905550808273ffffffffffffffffffffffffffffffffffffffff168473ffffffffffffffffffffffffffffffffffffffff167fddf252ad1be2c89b69c2b068fc378daa952ba7f163c4a11628f55a4df523b3ef60405160405180910390a461212a8383836001612dfc565b505050565b6121408161213b611cdf565b612e02565b50565b61214d828261127f565b61222057600160c9600084815260200190815260200160002060000160008373ffffffffffffffffffffffffffffffffffffffff1673ffffffffffffffffffffffffffffffffffffffff16815260200190815260200160002060006101000a81548160ff0219169083151502179055506121c5611cdf565b73ffffffffffffffffffffffffffffffffffffffff168173ffffffffffffffffffffffffffffffffffffffff16837f2f8788117e7eff1d82e926ec794901d17c78024a50270940304540a733656f0d60405160405180910390a45b5050565b61222e828261127f565b1561230257600060c9600084815260200190815260200160002060000160008373ffffffffffffffffffffffffffffffffffffffff1673ffffffffffffffffffffffffffffffffffffffff16815260200190815260200160002060006101000a81548160ff0219169083151502179055506122a7611cdf565b73ffffffffffffffffffffffffffffffffffffffff168173ffffffffffffffffffffffffffffffffffffffff16837ff6391f5c32d9c69d2a47ea670b442974b53935d1edc7fd64eb21e047a839171b60405160405180910390a45b5050565b60006123347f360894a13ba1a3210667c828492db98dca3e2076cc3735a920a3ca505d382bbc60001b612e87565b60000160009054906101000a900473ffffffffffffffffffffffffffffffffffffffff16905090565b7f9f2df0fed2c77648de5860a4cc508cd0818c85b8b8a1ab4ceeef8d981c8956a66123878161212f565b5050565b6123b77f4910fdfa16fed3260ed0e7147f7cc6da11a60208b5b9406d12a635614ffd914360001b612e91565b60000160009054906101000a900460ff16156123db576123d683612e9b565b612503565b8273ffffffffffffffffffffffffffffffffffffffff166352d1902d6040518163ffffffff1660e01b815260040160206040518083038186803b15801561242157600080fd5b505afa92505050801561245257506040513d601f19601f8201168201806040525081019061244f91906150d8565b60015b612491576040517f08c379a000000000000000000000000000000000000000000000000000000000815260040161248890615177565b60405180910390fd5b7f360894a13ba1a3210667c828492db98dca3e2076cc3735a920a3ca505d382bbc60001b81146124f6576040517f08c379a00000000000000000000000000000000000000000000000000000000081526004016124ed90615209565b60405180910390fd5b50612502838383612f54565b5b505050565b612510612f80565b6000609760006101000a81548160ff0219169083151502179055507f5db9ee0a495bf2e6ff9c91a7834c1ba4fdd244a5e8aa4e537bd38aeae4b073aa612554611cdf565b6040516125619190613dfe565b60405180910390a1565b6000808273ffffffffffffffffffffffffffffffffffffffff163b119050919050565b600060019054906101000a900460ff166125dd576040517f08c379a00000000000000000000000000000000000000000000000000000000081526004016125d49061529b565b60405180910390fd5b6125e78282612fc9565b5050565b600060019054906101000a900460ff1661263a576040517f08c379a00000000000000000000000000000000000000000000000000000000081526004016126319061529b565b60405180910390fd5b61264261304a565b565b600060019054906101000a900460ff16612693576040517f08c379a000000000000000000000000000000000000000000000000000000000815260040161268a9061529b565b60405180910390fd5b565b600060019054906101000a900460ff166126e4576040517f08c379a00000000000000000000000000000000000000000000000000000000081526004016126db9061529b565b60405180910390fd5b565b60006067600083815260200190815260200160002060009054906101000a900473ffffffffffffffffffffffffffffffffffffffff169050919050565b61272b6130b6565b6001609760006101000a81548160ff0219169083151502179055507f62e78cea01bee320cd4e420270b5ea74000d11b0c9f74754ebdbfc544b05a25861276f611cdf565b60405161277c9190613dfe565b60405180910390a1565b6000612791826110f2565b90506127a1816000846001612cd6565b6127aa826110f2565b90506069600083815260200190815260200160002060006101000a81549073ffffffffffffffffffffffffffffffffffffffff02191690556001606860008373ffffffffffffffffffffffffffffffffffffffff1673ffffffffffffffffffffffffffffffffffffffff168152602001908152602001600020600082825403925050819055506067600083815260200190815260200160002060006101000a81549073ffffffffffffffffffffffffffffffffffffffff021916905581600073ffffffffffffffffffffffffffffffffffffffff168273ffffffffffffffffffffffffffffffffffffffff167fddf252ad1be2c89b69c2b068fc378daa952ba7f163c4a11628f55a4df523b3ef60405160405180910390a46128d0816000846001612dfc565b5050565b6128ee828260405180602001604052806000815250613100565b5050565b8173ffffffffffffffffffffffffffffffffffffffff168373ffffffffffffffffffffffffffffffffffffffff161415612961576040517f08c379a000000000000000000000000000000000000000000000000000000000815260040161295890615307565b60405180910390fd5b80606a60008573ffffffffffffffffffffffffffffffffffffffff1673ffffffffffffffffffffffffffffffffffffffff16815260200190815260200160002060008473ffffffffffffffffffffffffffffffffffffffff1673ffffffffffffffffffffffffffffffffffffffff16815260200190815260200160002060006101000a81548160ff0219169083151502179055508173ffffffffffffffffffffffffffffffffffffffff168373ffffffffffffffffffffffffffffffffffffffff167f17307eab39ab6107e8899845ad3d59bd9653f200f220920489ca2b5937696c3183604051612a529190613c84565b60405180910390a3505050565b612a6a848484611e35565b612a768484848461315b565b612ab5576040517f08c379a0000000000000000000000000000000000000000000000000000000008152600401612aac90615399565b60405180910390fd5b50505050565b60008073ffffffffffffffffffffffffffffffffffffffff16612add836126e6565b73ffffffffffffffffffffffffffffffffffffffff1614159050919050565b60606040518060600160405280603681526020016159e960369139905090565b606060006001612b2b846132f2565b01905060008167ffffffffffffffff811115612b4a57612b49613fdc565b5b6040519080825280601f01601f191660200182016040528015612b7c5781602001600182028036833780820191505090505b509050600082602001820190505b600115612be9578080600190039150507f3031323334353637383961626364656600000000000000000000000000000000600a86061a8153600a8581612bd357612bd26153b9565b5b0494506000851415612be457612be9565b612b8a565b819350505050919050565b60007f80ac58cd000000000000000000000000000000000000000000000000000000007bffffffffffffffffffffffffffffffffffffffffffffffffffffffff1916827bffffffffffffffffffffffffffffffffffffffffffffffffffffffff19161480612cbf57507f5b5e139f000000000000000000000000000000000000000000000000000000007bffffffffffffffffffffffffffffffffffffffffffffffffffffffff1916827bffffffffffffffffffffffffffffffffffffffffffffffffffffffff1916145b80612ccf5750612cce82613445565b5b9050919050565b6001811115612df657600073ffffffffffffffffffffffffffffffffffffffff168473ffffffffffffffffffffffffffffffffffffffff1614612d6a5780606860008673ffffffffffffffffffffffffffffffffffffffff1673ffffffffffffffffffffffffffffffffffffffff1681526020019081526020016000206000828254612d6291906153e8565b925050819055505b600073ffffffffffffffffffffffffffffffffffffffff168373ffffffffffffffffffffffffffffffffffffffff1614612df55780606860008573ffffffffffffffffffffffffffffffffffffffff1673ffffffffffffffffffffffffffffffffffffffff1681526020019081526020016000206000828254612ded9190614bd2565b925050819055505b5b50505050565b50505050565b612e0c828261127f565b612e8357612e19816134af565b612e278360001c60206134dc565b604051602001612e389291906154b4565b6040516020818303038152906040526040517f08c379a0000000000000000000000000000000000000000000000000000000008152600401612e7a9190613d38565b60405180910390fd5b5050565b6000819050919050565b6000819050919050565b612ea48161256b565b612ee3576040517f08c379a0000000000000000000000000000000000000000000000000000000008152600401612eda90615560565b60405180910390fd5b80612f107f360894a13ba1a3210667c828492db98dca3e2076cc3735a920a3ca505d382bbc60001b612e87565b60000160006101000a81548173ffffffffffffffffffffffffffffffffffffffff021916908373ffffffffffffffffffffffffffffffffffffffff16021790555050565b612f5d83613718565b600082511180612f6a5750805b15612f7b57612f798383613767565b505b505050565b612f886110db565b612fc7576040517f08c379a0000000000000000000000000000000000000000000000000000000008152600401612fbe906155cc565b60405180910390fd5b565b600060019054906101000a900460ff16613018576040517f08c379a000000000000000000000000000000000000000000000000000000000815260040161300f9061529b565b60405180910390fd5b816065908051906020019061302e929190613b2d565b508060669080519060200190613045929190613b2d565b505050565b600060019054906101000a900460ff16613099576040517f08c379a00000000000000000000000000000000000000000000000000000000081526004016130909061529b565b60405180910390fd5b6000609760006101000a81548160ff021916908315150217905550565b6130be6110db565b156130fe576040517f08c379a00000000000000000000000000000000000000000000000000000000081526004016130f590615638565b60405180910390fd5b565b61310a838361384b565b613117600084848461315b565b613156576040517f08c379a000000000000000000000000000000000000000000000000000000000815260040161314d90615399565b60405180910390fd5b505050565b600061317c8473ffffffffffffffffffffffffffffffffffffffff1661256b565b156132e5578373ffffffffffffffffffffffffffffffffffffffff1663150b7a026131a5611cdf565b8786866040518563ffffffff1660e01b81526004016131c794939291906156ad565b602060405180830381600087803b1580156131e157600080fd5b505af192505050801561321257506040513d601f19601f8201168201806040525081019061320f919061570e565b60015b613295573d8060008114613242576040519150601f19603f3d011682016040523d82523d6000602084013e613247565b606091505b5060008151141561328d576040517f08c379a000000000000000000000000000000000000000000000000000000000815260040161328490615399565b60405180910390fd5b805181602001fd5b63150b7a0260e01b7bffffffffffffffffffffffffffffffffffffffffffffffffffffffff1916817bffffffffffffffffffffffffffffffffffffffffffffffffffffffff1916149150506132ea565b600190505b949350505050565b600080600090507a184f03e93ff9f4daa797ed6e38ed64bf6a1f0100000000000000008310613350577a184f03e93ff9f4daa797ed6e38ed64bf6a1f0100000000000000008381613346576133456153b9565b5b0492506040810190505b6d04ee2d6d415b85acef8100000000831061338d576d04ee2d6d415b85acef81000000008381613383576133826153b9565b5b0492506020810190505b662386f26fc1000083106133bc57662386f26fc1000083816133b2576133b16153b9565b5b0492506010810190505b6305f5e10083106133e5576305f5e10083816133db576133da6153b9565b5b0492506008810190505b612710831061340a576127108381613400576133ff6153b9565b5b0492506004810190505b6064831061342d5760648381613423576134226153b9565b5b0492506002810190505b600a831061343c576001810190505b80915050919050565b60007f01ffc9a7000000000000000000000000000000000000000000000000000000007bffffffffffffffffffffffffffffffffffffffffffffffffffffffff1916827bffffffffffffffffffffffffffffffffffffffffffffffffffffffff1916149050919050565b60606134d58273ffffffffffffffffffffffffffffffffffffffff16601460ff166134dc565b9050919050565b6060600060028360026134ef919061573b565b6134f99190614bd2565b67ffffffffffffffff81111561351257613511613fdc565b5b6040519080825280601f01601f1916602001820160405280156135445781602001600182028036833780820191505090505b5090507f30000000000000000000000000000000000000000000000000000000000000008160008151811061357c5761357b614d4c565b5b60200101907effffffffffffffffffffffffffffffffffffffffffffffffffffffffffffff1916908160001a9053507f7800000000000000000000000000000000000000000000000000000000000000816001815181106135e0576135df614d4c565b5b60200101907effffffffffffffffffffffffffffffffffffffffffffffffffffffffffffff1916908160001a90535060006001846002613620919061573b565b61362a9190614bd2565b90505b60018111156136ca577f3031323334353637383961626364656600000000000000000000000000000000600f86166010811061366c5761366b614d4c565b5b1a60f81b82828151811061368357613682614d4c565b5b60200101907effffffffffffffffffffffffffffffffffffffffffffffffffffffffffffff1916908160001a905350600485901c9450806136c390615795565b905061362d565b506000841461370e576040517f08c379a00000000000000000000000000000000000000000000000000000000081526004016137059061580b565b60405180910390fd5b8091505092915050565b61372181612e9b565b8073ffffffffffffffffffffffffffffffffffffffff167fbc7cd75a20ee27fd9adebab32041f755214dbc6bffa90cc0225b39da2e5c2d3b60405160405180910390a250565b60606137728361256b565b6137b1576040517f08c379a00000000000000000000000000000000000000000000000000000000081526004016137a89061589d565b60405180910390fd5b6000808473ffffffffffffffffffffffffffffffffffffffff16846040516137d991906158f9565b600060405180830381855af49150503d8060008114613814576040519150601f19603f3d011682016040523d82523d6000602084013e613819565b606091505b50915091506138418282604051806060016040528060278152602001615a1f60279139613a69565b9250505092915050565b600073ffffffffffffffffffffffffffffffffffffffff168273ffffffffffffffffffffffffffffffffffffffff1614156138bb576040517f08c379a00000000000000000000000000000000000000000000000000000000081526004016138b29061595c565b60405180910390fd5b6138c481612abb565b15613904576040517f08c379a00000000000000000000000000000000000000000000000000000000081526004016138fb906159c8565b60405180910390fd5b613912600083836001612cd6565b61391b81612abb565b1561395b576040517f08c379a0000000000000000000000000000000000000000000000000000000008152600401613952906159c8565b60405180910390fd5b6001606860008473ffffffffffffffffffffffffffffffffffffffff1673ffffffffffffffffffffffffffffffffffffffff16815260200190815260200160002060008282540192505081905550816067600083815260200190815260200160002060006101000a81548173ffffffffffffffffffffffffffffffffffffffff021916908373ffffffffffffffffffffffffffffffffffffffff160217905550808273ffffffffffffffffffffffffffffffffffffffff16600073ffffffffffffffffffffffffffffffffffffffff167fddf252ad1be2c89b69c2b068fc378daa952ba7f163c4a11628f55a4df523b3ef60405160405180910390a4613a65600083836001612dfc565b5050565b60608315613a7957829050613a84565b613a838383613a8b565b5b9392505050565b600082511115613a9e5781518083602001fd5b806040517f08c379a0000000000000000000000000000000000000000000000000000000008152600401613ad29190613d38565b60405180910390fd5b828054828255906000526020600020908101928215613b1c5760005260206000209182015b82811115613b1b578254825591600101919060010190613b00565b5b509050613b299190613bb3565b5090565b828054613b39906144e4565b90600052602060002090601f016020900481019282613b5b5760008555613ba2565b82601f10613b7457805160ff1916838001178555613ba2565b82800160010185558215613ba2579182015b82811115613ba1578251825591602001919060010190613b86565b5b509050613baf9190613bb3565b5090565b5b80821115613bcc576000816000905550600101613bb4565b5090565b6000604051905090565b600080fd5b600080fd5b60007fffffffff0000000000000000000000000000000000000000000000000000000082169050919050565b613c1981613be4565b8114613c2457600080fd5b50565b600081359050613c3681613c10565b92915050565b600060208284031215613c5257613c51613bda565b5b6000613c6084828501613c27565b91505092915050565b60008115159050919050565b613c7e81613c69565b82525050565b6000602082019050613c996000830184613c75565b92915050565b600081519050919050565b600082825260208201905092915050565b60005b83811015613cd9578082015181840152602081019050613cbe565b83811115613ce8576000848401525b50505050565b6000601f19601f8301169050919050565b6000613d0a82613c9f565b613d148185613caa565b9350613d24818560208601613cbb565b613d2d81613cee565b840191505092915050565b60006020820190508181036000830152613d528184613cff565b905092915050565b6000819050919050565b613d6d81613d5a565b8114613d7857600080fd5b50565b600081359050613d8a81613d64565b92915050565b600060208284031215613da657613da5613bda565b5b6000613db484828501613d7b565b91505092915050565b600073ffffffffffffffffffffffffffffffffffffffff82169050919050565b6000613de882613dbd565b9050919050565b613df881613ddd565b82525050565b6000602082019050613e136000830184613def565b92915050565b613e2281613ddd565b8114613e2d57600080fd5b50565b600081359050613e3f81613e19565b92915050565b60008060408385031215613e5c57613e5b613bda565b5b6000613e6a85828601613e30565b9250506020613e7b85828601613d7b565b9150509250929050565b600080600060608486031215613e9e57613e9d613bda565b5b6000613eac86828701613e30565b9350506020613ebd86828701613e30565b9250506040613ece86828701613d7b565b9150509250925092565b6000819050919050565b613eeb81613ed8565b8114613ef657600080fd5b50565b600081359050613f0881613ee2565b92915050565b600060208284031215613f2457613f23613bda565b5b6000613f3284828501613ef9565b91505092915050565b613f4481613ed8565b82525050565b6000602082019050613f5f6000830184613f3b565b92915050565b60008060408385031215613f7c57613f7b613bda565b5b6000613f8a85828601613ef9565b9250506020613f9b85828601613e30565b9150509250929050565b600060208284031215613fbb57613fba613bda565b5b6000613fc984828501613e30565b91505092915050565b600080fd5b600080fd5b7f4e487b7100000000000000000000000000000000000000000000000000000000600052604160045260246000fd5b61401482613cee565b810181811067ffffffffffffffff8211171561403357614032613fdc565b5b80604052505050565b6000614046613bd0565b9050614052828261400b565b919050565b600067ffffffffffffffff82111561407257614071613fdc565b5b61407b82613cee565b9050602081019050919050565b82818337600083830152505050565b60006140aa6140a584614057565b61403c565b9050828152602081018484840111156140c6576140c5613fd7565b5b6140d1848285614088565b509392505050565b600082601f8301126140ee576140ed613fd2565b5b81356140fe848260208601614097565b91505092915050565b6000806040838503121561411e5761411d613bda565b5b600083013567ffffffffffffffff81111561413c5761413b613bdf565b5b614148858286016140d9565b925050602083013567ffffffffffffffff81111561416957614168613bdf565b5b614175858286016140d9565b9150509250929050565b600067ffffffffffffffff82111561419a57614199613fdc565b5b6141a382613cee565b9050602081019050919050565b60006141c36141be8461417f565b61403c565b9050828152602081018484840111156141df576141de613fd7565b5b6141ea848285614088565b509392505050565b600082601f83011261420757614206613fd2565b5b81356142178482602086016141b0565b91505092915050565b6000806040838503121561423757614236613bda565b5b600061424585828601613e30565b925050602083013567ffffffffffffffff81111561426657614265613bdf565b5b614272858286016141f2565b9150509250929050565b61428581613d5a565b82525050565b60006020820190506142a0600083018461427c565b92915050565b6142af81613c69565b81146142ba57600080fd5b50565b6000813590506142cc816142a6565b92915050565b600080604083850312156142e9576142e8613bda565b5b60006142f785828601613e30565b9250506020614308858286016142bd565b9150509250929050565b6000806000806080858703121561432c5761432b613bda565b5b600061433a87828801613e30565b945050602061434b87828801613e30565b935050604061435c87828801613d7b565b925050606085013567ffffffffffffffff81111561437d5761437c613bdf565b5b614389878288016141f2565b91505092959194509250565b600081519050919050565b600082825260208201905092915050565b6000819050602082019050919050565b6143ca81613d5a565b82525050565b60006143dc83836143c1565b60208301905092915050565b6000602082019050919050565b600061440082614395565b61440a81856143a0565b9350614415836143b1565b8060005b8381101561444657815161442d88826143d0565b9750614438836143e8565b925050600181019050614419565b5085935050505092915050565b6000602082019050818103600083015261446d81846143f5565b905092915050565b6000806040838503121561448c5761448b613bda565b5b600061449a85828601613e30565b92505060206144ab85828601613e30565b9150509250929050565b7f4e487b7100000000000000000000000000000000000000000000000000000000600052602260045260246000fd5b600060028204905060018216806144fc57607f821691505b602082108114156145105761450f6144b5565b5b50919050565b7f4552433732313a20617070726f76616c20746f2063757272656e74206f776e6560008201527f7200000000000000000000000000000000000000000000000000000000000000602082015250565b6000614572602183613caa565b915061457d82614516565b604082019050919050565b600060208201905081810360008301526145a181614565565b9050919050565b7f4552433732313a20617070726f76652063616c6c6572206973206e6f7420746f60008201527f6b656e206f776e6572206f7220617070726f76656420666f7220616c6c000000602082015250565b6000614604603d83613caa565b915061460f826145a8565b604082019050919050565b60006020820190508181036000830152614633816145f7565b9050919050565b7f4552433732313a2063616c6c6572206973206e6f7420746f6b656e206f776e6560008201527f72206f7220617070726f76656400000000000000000000000000000000000000602082015250565b6000614696602d83613caa565b91506146a18261463a565b604082019050919050565b600060208201905081810360008301526146c581614689565b9050919050565b7f416363657373436f6e74726f6c3a2063616e206f6e6c792072656e6f756e636560008201527f20726f6c657320666f722073656c660000000000000000000000000000000000602082015250565b6000614728602f83613caa565b9150614733826146cc565b604082019050919050565b600060208201905081810360008301526147578161471b565b9050919050565b7f46756e6374696f6e206d7573742062652063616c6c6564207468726f7567682060008201527f64656c656761746563616c6c0000000000000000000000000000000000000000602082015250565b60006147ba602c83613caa565b91506147c58261475e565b604082019050919050565b600060208201905081810360008301526147e9816147ad565b9050919050565b7f46756e6374696f6e206d7573742062652063616c6c6564207468726f7567682060008201527f6163746976652070726f78790000000000000000000000000000000000000000602082015250565b600061484c602c83613caa565b9150614857826147f0565b604082019050919050565b6000602082019050818103600083015261487b8161483f565b9050919050565b7f496e697469616c697a61626c653a20636f6e747261637420697320616c72656160008201527f647920696e697469616c697a6564000000000000000000000000000000000000602082015250565b60006148de602e83613caa565b91506148e982614882565b604082019050919050565b6000602082019050818103600083015261490d816148d1565b9050919050565b6000819050919050565b600060ff82169050919050565b6000819050919050565b600061495061494b61494684614914565b61492b565b61491e565b9050919050565b61496081614935565b82525050565b600060208201905061497b6000830184614957565b92915050565b7f555550535570677261646561626c653a206d757374206e6f742062652063616c60008201527f6c6564207468726f7567682064656c656761746563616c6c0000000000000000602082015250565b60006149dd603883613caa565b91506149e882614981565b604082019050919050565b60006020820190508181036000830152614a0c816149d0565b9050919050565b7f4552433732313a20696e76616c696420746f6b656e2049440000000000000000600082015250565b6000614a49601883613caa565b9150614a5482614a13565b602082019050919050565b60006020820190508181036000830152614a7881614a3c565b9050919050565b7f4552433732313a2061646472657373207a65726f206973206e6f74206120766160008201527f6c6964206f776e65720000000000000000000000000000000000000000000000602082015250565b6000614adb602983613caa565b9150614ae682614a7f565b604082019050919050565b60006020820190508181036000830152614b0a81614ace565b9050919050565b7f4d6574726f706f6c6974616e204e46543a20416464726573732061206d696e7460008201527f65617220657320696e76616c69646f0000000000000000000000000000000000602082015250565b6000614b6d602f83613caa565b9150614b7882614b11565b604082019050919050565b60006020820190508181036000830152614b9c81614b60565b9050919050565b7f4e487b7100000000000000000000000000000000000000000000000000000000600052601160045260246000fd5b6000614bdd82613d5a565b9150614be883613d5a565b9250827fffffffffffffffffffffffffffffffffffffffffffffffffffffffffffffffff03821115614c1d57614c1c614ba3565b5b828201905092915050565b7f4d6574726f706f6c6974616e204e46543a20456c20696420657374612066756560008201527f72612064656c2072616e676f207065726d697469646f00000000000000000000602082015250565b6000614c84603683613caa565b9150614c8f82614c28565b604082019050919050565b60006020820190508181036000830152614cb381614c77565b9050919050565b7f4d6574726f706f6c6974616e204e46543a20456c20616464726573732064756560008201527f6e6f206573206f74726f2064697374696e746f00000000000000000000000000602082015250565b6000614d16603383613caa565b9150614d2182614cba565b604082019050919050565b60006020820190508181036000830152614d4581614d09565b9050919050565b7f4e487b7100000000000000000000000000000000000000000000000000000000600052603260045260246000fd5b6000614d8682613d5a565b91507fffffffffffffffffffffffffffffffffffffffffffffffffffffffffffffffff821415614db957614db8614ba3565b5b600182019050919050565b7f4d6574726f706f6c6974616e204e46543a204e465420796120667565206d696e60008201527f746561646f2061206f7472612061646472657373000000000000000000000000602082015250565b6000614e20603483613caa565b9150614e2b82614dc4565b604082019050919050565b60006020820190508181036000830152614e4f81614e13565b9050919050565b7f4d6574726f706f6c6974616e204e46543a20436f6e73756c746120646520555260008201527f49207061726120746f6b656e20696e6578697374656e74650000000000000000602082015250565b6000614eb2603883613caa565b9150614ebd82614e56565b604082019050919050565b60006020820190508181036000830152614ee181614ea5565b9050919050565b600081905092915050565b6000614efe82613c9f565b614f088185614ee8565b9350614f18818560208601613cbb565b80840191505092915050565b7f2e6a736f6e000000000000000000000000000000000000000000000000000000600082015250565b6000614f5a600583614ee8565b9150614f6582614f24565b600582019050919050565b6000614f7c8285614ef3565b9150614f888284614ef3565b9150614f9382614f4d565b91508190509392505050565b7f4552433732313a207472616e736665722066726f6d20696e636f72726563742060008201527f6f776e6572000000000000000000000000000000000000000000000000000000602082015250565b6000614ffb602583613caa565b915061500682614f9f565b604082019050919050565b6000602082019050818103600083015261502a81614fee565b9050919050565b7f4552433732313a207472616e7366657220746f20746865207a65726f2061646460008201527f7265737300000000000000000000000000000000000000000000000000000000602082015250565b600061508d602483613caa565b915061509882615031565b604082019050919050565b600060208201905081810360008301526150bc81615080565b9050919050565b6000815190506150d281613ee2565b92915050565b6000602082840312156150ee576150ed613bda565b5b60006150fc848285016150c3565b91505092915050565b7f45524331393637557067726164653a206e657720696d706c656d656e7461746960008201527f6f6e206973206e6f742055555053000000000000000000000000000000000000602082015250565b6000615161602e83613caa565b915061516c82615105565b604082019050919050565b6000602082019050818103600083015261519081615154565b9050919050565b7f45524331393637557067726164653a20756e737570706f727465642070726f7860008201527f6961626c65555549440000000000000000000000000000000000000000000000602082015250565b60006151f3602983613caa565b91506151fe82615197565b604082019050919050565b60006020820190508181036000830152615222816151e6565b9050919050565b7f496e697469616c697a61626c653a20636f6e7472616374206973206e6f74206960008201527f6e697469616c697a696e67000000000000000000000000000000000000000000602082015250565b6000615285602b83613caa565b915061529082615229565b604082019050919050565b600060208201905081810360008301526152b481615278565b9050919050565b7f4552433732313a20617070726f766520746f2063616c6c657200000000000000600082015250565b60006152f1601983613caa565b91506152fc826152bb565b602082019050919050565b60006020820190508181036000830152615320816152e4565b9050919050565b7f4552433732313a207472616e7366657220746f206e6f6e20455243373231526560008201527f63656976657220696d706c656d656e7465720000000000000000000000000000602082015250565b6000615383603283613caa565b915061538e82615327565b604082019050919050565b600060208201905081810360008301526153b281615376565b9050919050565b7f4e487b7100000000000000000000000000000000000000000000000000000000600052601260045260246000fd5b60006153f382613d5a565b91506153fe83613d5a565b92508282101561541157615410614ba3565b5b828203905092915050565b7f416363657373436f6e74726f6c3a206163636f756e7420000000000000000000600082015250565b6000615452601783614ee8565b915061545d8261541c565b601782019050919050565b7f206973206d697373696e6720726f6c6520000000000000000000000000000000600082015250565b600061549e601183614ee8565b91506154a982615468565b601182019050919050565b60006154bf82615445565b91506154cb8285614ef3565b91506154d682615491565b91506154e28284614ef3565b91508190509392505050565b7f455243313936373a206e657720696d706c656d656e746174696f6e206973206e60008201527f6f74206120636f6e747261637400000000000000000000000000000000000000602082015250565b600061554a602d83613caa565b9150615555826154ee565b604082019050919050565b600060208201905081810360008301526155798161553d565b9050919050565b7f5061757361626c653a206e6f7420706175736564000000000000000000000000600082015250565b60006155b6601483613caa565b91506155c182615580565b602082019050919050565b600060208201905081810360008301526155e5816155a9565b9050919050565b7f5061757361626c653a2070617573656400000000000000000000000000000000600082015250565b6000615622601083613caa565b915061562d826155ec565b602082019050919050565b6000602082019050818103600083015261565181615615565b9050919050565b600081519050919050565b600082825260208201905092915050565b600061567f82615658565b6156898185615663565b9350615699818560208601613cbb565b6156a281613cee565b840191505092915050565b60006080820190506156c26000830187613def565b6156cf6020830186613def565b6156dc604083018561427c565b81810360608301526156ee8184615674565b905095945050505050565b60008151905061570881613c10565b92915050565b60006020828403121561572457615723613bda565b5b6000615732848285016156f9565b91505092915050565b600061574682613d5a565b915061575183613d5a565b9250817fffffffffffffffffffffffffffffffffffffffffffffffffffffffffffffffff048311821515161561578a57615789614ba3565b5b828202905092915050565b60006157a082613d5a565b915060008214156157b4576157b3614ba3565b5b600182039050919050565b7f537472696e67733a20686578206c656e67746820696e73756666696369656e74600082015250565b60006157f5602083613caa565b9150615800826157bf565b602082019050919050565b60006020820190508181036000830152615824816157e8565b9050919050565b7f416464726573733a2064656c65676174652063616c6c20746f206e6f6e2d636f60008201527f6e74726163740000000000000000000000000000000000000000000000000000602082015250565b6000615887602683613caa565b91506158928261582b565b604082019050919050565b600060208201905081810360008301526158b68161587a565b9050919050565b600081905092915050565b60006158d382615658565b6158dd81856158bd565b93506158ed818560208601613cbb565b80840191505092915050565b600061590582846158c8565b915081905092915050565b7f4552433732313a206d696e7420746f20746865207a65726f2061646472657373600082015250565b6000615946602083613caa565b915061595182615910565b602082019050919050565b6000602082019050818103600083015261597581615939565b9050919050565b7f4552433732313a20746f6b656e20616c7265616479206d696e74656400000000600082015250565b60006159b2601c83613caa565b91506159bd8261597c565b602082019050919050565b600060208201905081810360008301526159e1816159a5565b905091905056fe697066733a2f2f516d51587a376d7863727a4e614d3275416d507434544a7950427244484a36795941377663706d6653436b4c62432f416464726573733a206c6f772d6c6576656c2064656c65676174652063616c6c206661696c6564a2646970667358221220d47981c84c796fc4b3a911b3049cc7bbaf6886f02dfaf06e7dfa25d0d28c90ca64736f6c63430008090033",
  "linkReferences": {},
  "deployedLinkReferences": {}
}